{
  "contractName": "CrowdSale",
  "abi": [
    {
      "constant": true,
      "inputs": [],
      "name": "treasury",
      "outputs": [
        {
          "name": "",
          "type": "address"
        }
      ],
      "payable": false,
      "stateMutability": "view",
      "type": "function",
      "signature": "0x61d027b3"
    },
    {
      "constant": false,
      "inputs": [],
      "name": "renounceOwnership",
      "outputs": [],
      "payable": false,
      "stateMutability": "nonpayable",
      "type": "function",
      "signature": "0x715018a6"
    },
    {
      "constant": true,
      "inputs": [
        {
          "name": "",
          "type": "address"
        }
      ],
      "name": "userContributonDetails",
      "outputs": [
        {
          "name": "",
          "type": "uint256"
        }
      ],
      "payable": false,
      "stateMutability": "view",
      "type": "function",
      "signature": "0x81cc806d"
    },
    {
      "constant": true,
      "inputs": [],
      "name": "erc20Token",
      "outputs": [
        {
          "name": "",
          "type": "address"
        }
      ],
      "payable": false,
      "stateMutability": "view",
      "type": "function",
      "signature": "0x8a13eea7"
    },
    {
      "constant": true,
      "inputs": [],
      "name": "owner",
      "outputs": [
        {
          "name": "",
          "type": "address"
        }
      ],
      "payable": false,
      "stateMutability": "view",
      "type": "function",
      "signature": "0x8da5cb5b"
    },
    {
      "constant": true,
      "inputs": [],
      "name": "isOwner",
      "outputs": [
        {
          "name": "",
          "type": "bool"
        }
      ],
      "payable": false,
      "stateMutability": "view",
      "type": "function",
      "signature": "0x8f32d59b"
    },
    {
      "constant": true,
      "inputs": [],
      "name": "etherMinContrib",
      "outputs": [
        {
          "name": "",
          "type": "uint256"
        }
      ],
      "payable": false,
      "stateMutability": "view",
      "type": "function",
      "signature": "0xb4ab50f7"
    },
    {
      "constant": true,
      "inputs": [],
      "name": "roundDetails",
      "outputs": [
        {
          "name": "tokenCount",
          "type": "uint256"
        },
        {
          "name": "tokenRate",
          "type": "uint256"
        },
        {
          "name": "totalTokensSold",
          "type": "uint256"
        },
        {
          "name": "endTime",
          "type": "uint256"
        },
        {
          "name": "startTime",
          "type": "uint256"
        }
      ],
      "payable": false,
      "stateMutability": "view",
      "type": "function",
      "signature": "0xda6ac0e2"
    },
    {
      "constant": true,
      "inputs": [],
      "name": "etherMaxContrib",
      "outputs": [
        {
          "name": "",
          "type": "uint256"
        }
      ],
      "payable": false,
      "stateMutability": "view",
      "type": "function",
      "signature": "0xe684abfd"
    },
    {
      "constant": false,
      "inputs": [
        {
          "name": "newOwner",
          "type": "address"
        }
      ],
      "name": "transferOwnership",
      "outputs": [],
      "payable": false,
      "stateMutability": "nonpayable",
      "type": "function",
      "signature": "0xf2fde38b"
    },
    {
      "inputs": [
        {
          "name": "_etherMinContrib",
          "type": "uint256"
        },
        {
          "name": "_etherMaxContrib",
          "type": "uint256"
        },
        {
          "name": "_endTime",
          "type": "uint256"
        },
        {
          "name": "_startTime",
          "type": "uint256"
        },
        {
          "name": "_tokenCount",
          "type": "uint256"
        },
        {
          "name": "_tokenRate",
          "type": "uint256"
        },
        {
          "name": "_treasuryAddress",
          "type": "address"
        },
        {
          "name": "_erc20TokenAddress",
          "type": "address"
        }
      ],
      "payable": false,
      "stateMutability": "nonpayable",
      "type": "constructor",
      "signature": "constructor"
    },
    {
      "payable": true,
      "stateMutability": "payable",
      "type": "fallback"
    },
    {
      "anonymous": false,
      "inputs": [
        {
          "indexed": false,
          "name": "contributor",
          "type": "address"
        },
        {
          "indexed": false,
          "name": "etherAmount",
          "type": "uint256"
        },
        {
          "indexed": false,
          "name": "tokenAmount",
          "type": "uint256"
        }
      ],
      "name": "LogContribution",
      "type": "event",
      "signature": "0x85f3c568c46211a851eab01fa3dd8725e07fb05eeaf9f852859aa866f787d9fe"
    },
    {
      "anonymous": false,
      "inputs": [
        {
          "indexed": true,
          "name": "previousOwner",
          "type": "address"
        },
        {
          "indexed": true,
          "name": "newOwner",
          "type": "address"
        }
      ],
      "name": "OwnershipTransferred",
      "type": "event",
      "signature": "0x8be0079c531659141344cd1fd0a4f28419497f9722a3daafe3b4186f6b6457e0"
    },
    {
      "constant": false,
      "inputs": [],
      "name": "finalizeDaico",
      "outputs": [],
      "payable": false,
      "stateMutability": "nonpayable",
      "type": "function",
      "signature": "0x3413501c"
    },
    {
      "constant": false,
      "inputs": [],
      "name": "startNewRound",
      "outputs": [],
      "payable": false,
      "stateMutability": "nonpayable",
      "type": "function",
      "signature": "0xbd85948c"
    }
  ],
  "bytecode": "0x608060405234801561001057600080fd5b5060405161010080610e6783398101604081815282516020840151918401516060850151608086015160a087015160c088015160e09098015160008054600160a060020a0319163317808255969997989597949693959294939192600160a060020a0392909216917f8be0079c531659141344cd1fd0a4f28419497f9722a3daafe3b4186f6b6457e0908290a360068054600160a060020a03928316600160a060020a0319918216179091556007805460089a909a556009989098556040805160a0810182528681526020810186905260009181018290526060810189905260800187905260019590955560029390935560039390935560049490945560059290925560a060020a60ff021992169316929092179190911674010000000000000000000000000000000000000000179055610d17806101506000396000f3006080604052600436106100b95763ffffffff7c01000000000000000000000000000000000000000000000000000000006000350416633413501c811461014f57806361d027b314610164578063715018a61461019557806381cc806d146101aa5780638a13eea7146101dd5780638da5cb5b146101f25780638f32d59b14610207578063b4ab50f714610230578063bd85948c14610245578063da6ac0e21461025a578063e684abfd1461029a578063f2fde38b146102af575b60075474010000000000000000000000000000000000000000900460ff161561014357604080517f08c379a000000000000000000000000000000000000000000000000000000000815260206004820152601360248201527f43726f776473616c652069732070617573656400000000000000000000000000604482015290519081900360640190fd5b61014d33346102d0565b005b34801561015b57600080fd5b5061014d61062a565b34801561017057600080fd5b506101796106f7565b60408051600160a060020a039092168252519081900360200190f35b3480156101a157600080fd5b5061014d610706565b3480156101b657600080fd5b506101cb600160a060020a0360043516610770565b60408051918252519081900360200190f35b3480156101e957600080fd5b50610179610782565b3480156101fe57600080fd5b50610179610791565b34801561021357600080fd5b5061021c6107a0565b604080519115158252519081900360200190f35b34801561023c57600080fd5b506101cb6107b1565b34801561025157600080fd5b5061014d6107b7565b34801561026657600080fd5b5061026f6109d9565b6040805195865260208601949094528484019290925260608401526080830152519081900360a00190f35b3480156102a657600080fd5b506101cb6109eb565b3480156102bb57600080fd5b5061014d600160a060020a03600435166109f1565b60008060008060008060006102e3610a0d565b151561035057604080517f08c379a000000000000000000000000000000000000000000000000000000000815260206004820152601860248201527f4e6f7420612076616c696420636f6e747269627574696f6e0000000000000000604482015290519081900360640190fd5b600454600197504211156103c557604080517f08c379a000000000000000000000000000000000000000000000000000000000815260206004820152601660248201527f466972737420726f756e64206861732070617373656400000000000000000000604482015290519081900360640190fd5b6103d3888860010154610a85565b95506103e3868860020154610abe565b87549095506000945084935083925085101561040b57600287018590558793508591506104ff565b61041d87600001548860020154610ad0565b905061042d818860010154610ae7565b8754600289015593509050806104438885610ad0565b9250600760009054906101000a9004600160a060020a0316600160a060020a031663036fba106040518163ffffffff167c0100000000000000000000000000000000000000000000000000000000028152600401600060405180830381600087803b1580156104b157600080fd5b505af11580156104c5573d6000803e3d6000fd5b50506007805474ff000000000000000000000000000000000000000019167401000000000000000000000000000000000000000017905550505b600160a060020a0389166000908152600a60205260409020546105229085610abe565b600160a060020a038a166000908152600a6020526040902055610546898584610b0a565b600083111561061f57600660009054906101000a9004600160a060020a0316600160a060020a0316637d64bcb46040518163ffffffff167c0100000000000000000000000000000000000000000000000000000000028152600401602060405180830381600087803b1580156105bb57600080fd5b505af11580156105cf573d6000803e3d6000fd5b505050506040513d60208110156105e557600080fd5b5050604051600160a060020a038a169084156108fc029085906000818181858888f1935050505015801561061d573d6000803e3d6000fd5b505b505050505050505050565b6004546001904210801590610643575080546002820154105b156106f4576007805474ff00000000000000000000000000000000000000001916740100000000000000000000000000000000000000001790819055604080517f3b64e77e0000000000000000000000000000000000000000000000000000000081529051600160a060020a0390921691633b64e77e9160048082019260009290919082900301818387803b1580156106db57600080fd5b505af11580156106ef573d6000803e3d6000fd5b505050505b50565b600754600160a060020a031681565b61070e6107a0565b151561071957600080fd5b60008054604051600160a060020a03909116907f8be0079c531659141344cd1fd0a4f28419497f9722a3daafe3b4186f6b6457e0908390a36000805473ffffffffffffffffffffffffffffffffffffffff19169055565b600a6020526000908152604090205481565b600654600160a060020a031681565b600054600160a060020a031690565b600054600160a060020a0316331490565b60085481565b6107bf6107a0565b15156107ca57600080fd5b60075474010000000000000000000000000000000000000000900460ff16151561085557604080517f08c379a000000000000000000000000000000000000000000000000000000000815260206004820152601860248201527f43726f776473616c65206d757374206265207061757365640000000000000000604482015290519081900360640190fd5b60055442116108c557604080517f08c379a000000000000000000000000000000000000000000000000000000000815260206004820152600f60248201527f43616e2774207374617274207965740000000000000000000000000000000000604482015290519081900360640190fd5b600454421061093557604080517f08c379a000000000000000000000000000000000000000000000000000000000815260206004820152601060248201527f54696d652068617320656c617073656400000000000000000000000000000000604482015290519081900360640190fd5b600760009054906101000a9004600160a060020a0316600160a060020a03166313845a706040518163ffffffff167c0100000000000000000000000000000000000000000000000000000000028152600401600060405180830381600087803b1580156109a157600080fd5b505af11580156109b5573d6000803e3d6000fd5b50506007805474ff0000000000000000000000000000000000000000191690555050565b60015460025460035460045460055485565b60095481565b6109f96107a0565b1515610a0457600080fd5b6106f481610c6e565b336000908152600a60205260408120548180610a293484610abe565b91506001905060085434101580610a5e57508060000154610a5b610a51348460010154610a85565b8360020154610abe565b10155b8015610a6c57506009548211155b15610a7a5760019350610a7f565b600093505b50505090565b600080831515610a985760009150610ab7565b50828202828482811515610aa857fe5b0414610ab357600080fd5b8091505b5092915050565b600082820183811015610ab357600080fd5b60008083831115610ae057600080fd5b5050900390565b600080808311610af657600080fd5b8284811515610b0157fe5b04949350505050565b600654604080517f40c10f19000000000000000000000000000000000000000000000000000000008152600160a060020a03868116600483015260248201859052915191909216916340c10f199160448083019260209291908290030181600087803b158015610b7957600080fd5b505af1158015610b8d573d6000803e3d6000fd5b505050506040513d6020811015610ba357600080fd5b5050600754604080517f677ab1970000000000000000000000000000000000000000000000000000000081529051600160a060020a039092169163677ab197918591600480830192600092919082900301818588803b158015610c0557600080fd5b505af1158015610c19573d6000803e3d6000fd5b505060408051600160a060020a03881681526020810187905280820186905290517f85f3c568c46211a851eab01fa3dd8725e07fb05eeaf9f852859aa866f787d9fe94509081900360600192509050a1505050565b600160a060020a0381161515610c8357600080fd5b60008054604051600160a060020a03808516939216917f8be0079c531659141344cd1fd0a4f28419497f9722a3daafe3b4186f6b6457e091a36000805473ffffffffffffffffffffffffffffffffffffffff1916600160a060020a03929092169190911790555600a165627a7a72305820e26d72abb2d972707f23e77628f32a64af2f969dcb2b149939f30f5bac2ff2ce0029",
  "source": "pragma solidity ^0.4.25;\r\n\r\nimport \"./Interfaces/IDaicoToken.sol\";\r\nimport \"openzeppelin-solidity/contracts/math/SafeMath.sol\";\r\nimport \"./Interfaces/ICrowdSaleTreasury.sol\";\r\nimport \"openzeppelin-solidity/contracts/ownership/Ownable.sol\"; //need to check if necessary\r\n\r\n\r\ncontract CrowdSale is Ownable {\r\n\r\n    struct RoundData {\r\n        uint tokenCount;\r\n        uint tokenRate; //rate is in tokens/wei\r\n        uint totalTokensSold;\r\n        uint endTime;\r\n        uint startTime;\r\n    }\r\n\r\n    RoundData public roundDetails;\r\n    IDaicoToken public erc20Token;\r\n    ICrowdSaleTreasury public treasury;\r\n\r\n    bool private paused;\r\n    uint public etherMinContrib;\r\n    uint public etherMaxContrib;\r\n    mapping(address => uint) public userContributonDetails;\r\n\r\n    event LogContribution(address contributor, uint etherAmount, uint tokenAmount);\r\n\r\n    constructor (uint _etherMinContrib, uint _etherMaxContrib, uint _endTime, uint _startTime,\r\n        uint _tokenCount, uint _tokenRate, address _treasuryAddress, address _erc20TokenAddress) public {\r\n        \r\n        erc20Token = IDaicoToken(_erc20TokenAddress);\r\n        treasury = ICrowdSaleTreasury(_treasuryAddress);\r\n\r\n        etherMinContrib = _etherMinContrib;\r\n        etherMaxContrib = _etherMaxContrib;\r\n\r\n        roundDetails = RoundData({\r\n            tokenCount: _tokenCount, tokenRate: _tokenRate, endTime: _endTime, totalTokensSold: 0, \r\n            startTime: _startTime\r\n        });\r\n        paused = true;\r\n    }\r\n\r\n    modifier checkContribution() {\r\n        require(isValidContribution(), \"Not a valid contribution\");\r\n        _;\r\n    }\r\n\r\n    modifier whenNotPaused() {\r\n        require(!paused, \"Crowdsale is paused\");\r\n        _;\r\n    }\r\n\r\n    function () public payable whenNotPaused {\r\n        processContribution(msg.sender, msg.value);\r\n    }\r\n\r\n    function finalizeDaico() public {\r\n        RoundData storage roundInfo = roundDetails;\r\n        if (now >= roundInfo.endTime && roundInfo.totalTokensSold < roundInfo.tokenCount) {\r\n            paused = true;\r\n            treasury.enableCrowdsaleRefund();\r\n        }\r\n    }\r\n\r\n    function startNewRound() public onlyOwner {\r\n        require(paused, \"Crowdsale must be paused\");\r\n        require(now > roundDetails.startTime, \"Can't start yet\");\r\n        require(now < roundDetails.endTime, \"Time has elapsed\");\r\n        treasury.onR1Start();\r\n        paused = false;\r\n    }\r\n\r\n    function isValidContribution() internal view returns (bool) {  \r\n        uint userContrib = userContributonDetails[msg.sender];\r\n        uint currentUserContribution = SafeMath.add(msg.value, userContrib);\r\n        RoundData storage roundInfo = roundDetails;\r\n        if ((msg.value >= etherMinContrib || SafeMath.add(SafeMath.mul(msg.value, roundInfo.tokenRate), \r\n        roundInfo.totalTokensSold) >= roundInfo.tokenCount) && currentUserContribution <= etherMaxContrib) {\r\n            return true;\r\n        }\r\n        return false;\r\n    }\r\n    \r\n    function processContribution(address _contributor, uint256 _amount) internal checkContribution {\r\n        RoundData storage roundInfo = roundDetails;\r\n        require(now <= roundInfo.endTime, \"First round has passed\");\r\n        uint tokensToGiveUser = SafeMath.mul(_amount, roundInfo.tokenRate);\r\n        uint tempTotalTokens = SafeMath.add(tokensToGiveUser, roundInfo.totalTokensSold);\r\n        \r\n        uint weiSpent = 0;\r\n        uint weiLeft = 0;\r\n        uint totalTokensToSend = 0;\r\n        if (tempTotalTokens < roundInfo.tokenCount) {\r\n            weiSpent = _amount;\r\n            totalTokensToSend = tokensToGiveUser;\r\n            roundInfo.totalTokensSold = tempTotalTokens;\r\n        } else {\r\n            uint leftTokens = SafeMath.sub(roundInfo.tokenCount, roundInfo.totalTokensSold);\r\n            weiSpent = SafeMath.div(leftTokens, roundInfo.tokenRate);\r\n            roundInfo.totalTokensSold = roundInfo.tokenCount;\r\n            totalTokensToSend = leftTokens;\r\n            weiLeft = SafeMath.sub(_amount, weiSpent);            \r\n            treasury.onCrowdSaleR1End();\r\n            paused = true;\r\n        }\r\n        \r\n        userContributonDetails[_contributor] = SafeMath.add(userContributonDetails[_contributor], weiSpent);\r\n        \r\n        processPayment(_contributor, weiSpent, totalTokensToSend);\r\n        if (weiLeft > 0) {\r\n            erc20Token.finishMinting();\r\n            _contributor.transfer(weiLeft);\r\n        }\r\n    }\r\n\r\n    function processPayment(address contributor, uint etherAmount, uint256 tokenAmount) internal {\r\n        erc20Token.mint(contributor, tokenAmount);\r\n        treasury.processContribution.value(etherAmount)();\r\n        emit LogContribution(contributor, etherAmount, tokenAmount);\r\n    }\r\n}\r\n",
  "sourcePath": "C:/Users/Naina/source/repos/ETH_Singapore_Hackathon_SC/contracts/CrowdSale.sol",
  "compiler": {
    "name": "solc",
    "version": "0.4.25+commit.59dbf8f1.Emscripten.clang"
  },
  "schemaVersion": "3.0.0-beta.0",
  "updatedAt": "2018-12-08T13:49:23.436Z"
}