{
  "contractName": "DaicoToken",
  "abi": [
    {
      "constant": true,
      "inputs": [],
      "name": "crowdSaleAddress",
      "outputs": [
        {
          "name": "",
          "type": "address"
        }
      ],
      "payable": false,
      "stateMutability": "view",
      "type": "function",
      "signature": "0x0184fc35"
    },
    {
      "constant": true,
      "inputs": [],
      "name": "mintingFinished",
      "outputs": [
        {
          "name": "",
          "type": "bool"
        }
      ],
      "payable": false,
      "stateMutability": "view",
      "type": "function",
      "signature": "0x05d2035b"
    },
    {
      "constant": true,
      "inputs": [],
      "name": "name",
      "outputs": [
        {
          "name": "",
          "type": "string"
        }
      ],
      "payable": false,
      "stateMutability": "view",
      "type": "function",
      "signature": "0x06fdde03"
    },
    {
      "constant": false,
      "inputs": [
        {
          "name": "spender",
          "type": "address"
        },
        {
          "name": "value",
          "type": "uint256"
        }
      ],
      "name": "approve",
      "outputs": [
        {
          "name": "",
          "type": "bool"
        }
      ],
      "payable": false,
      "stateMutability": "nonpayable",
      "type": "function",
      "signature": "0x095ea7b3"
    },
    {
      "constant": true,
      "inputs": [],
      "name": "totalSupply",
      "outputs": [
        {
          "name": "",
          "type": "uint256"
        }
      ],
      "payable": false,
      "stateMutability": "view",
      "type": "function",
      "signature": "0x18160ddd"
    },
    {
      "constant": false,
      "inputs": [
        {
          "name": "_from",
          "type": "address"
        },
        {
          "name": "_to",
          "type": "address"
        },
        {
          "name": "_value",
          "type": "uint256"
        }
      ],
      "name": "transferFrom",
      "outputs": [
        {
          "name": "success",
          "type": "bool"
        }
      ],
      "payable": false,
      "stateMutability": "nonpayable",
      "type": "function",
      "signature": "0x23b872dd"
    },
    {
      "constant": true,
      "inputs": [],
      "name": "decimals",
      "outputs": [
        {
          "name": "",
          "type": "uint8"
        }
      ],
      "payable": false,
      "stateMutability": "view",
      "type": "function",
      "signature": "0x313ce567"
    },
    {
      "constant": false,
      "inputs": [
        {
          "name": "spender",
          "type": "address"
        },
        {
          "name": "addedValue",
          "type": "uint256"
        }
      ],
      "name": "increaseAllowance",
      "outputs": [
        {
          "name": "",
          "type": "bool"
        }
      ],
      "payable": false,
      "stateMutability": "nonpayable",
      "type": "function",
      "signature": "0x39509351"
    },
    {
      "constant": true,
      "inputs": [],
      "name": "capTokenAmount",
      "outputs": [
        {
          "name": "",
          "type": "uint256"
        }
      ],
      "payable": false,
      "stateMutability": "view",
      "type": "function",
      "signature": "0x4cb93ff8"
    },
    {
      "constant": true,
      "inputs": [],
      "name": "totalMintableSupply",
      "outputs": [
        {
          "name": "",
          "type": "uint256"
        }
      ],
      "payable": false,
      "stateMutability": "view",
      "type": "function",
      "signature": "0x5706e8e7"
    },
    {
      "constant": true,
      "inputs": [],
      "name": "getTotalMintableSupply",
      "outputs": [
        {
          "name": "",
          "type": "uint256"
        }
      ],
      "payable": false,
      "stateMutability": "view",
      "type": "function",
      "signature": "0x683d8baf"
    },
    {
      "constant": true,
      "inputs": [
        {
          "name": "owner",
          "type": "address"
        }
      ],
      "name": "balanceOf",
      "outputs": [
        {
          "name": "",
          "type": "uint256"
        }
      ],
      "payable": false,
      "stateMutability": "view",
      "type": "function",
      "signature": "0x70a08231"
    },
    {
      "constant": false,
      "inputs": [],
      "name": "renounceOwnership",
      "outputs": [],
      "payable": false,
      "stateMutability": "nonpayable",
      "type": "function",
      "signature": "0x715018a6"
    },
    {
      "constant": true,
      "inputs": [
        {
          "name": "",
          "type": "address"
        }
      ],
      "name": "frozenAccounts",
      "outputs": [
        {
          "name": "currentPollsParticipating",
          "type": "uint256"
        }
      ],
      "payable": false,
      "stateMutability": "view",
      "type": "function",
      "signature": "0x860838a5"
    },
    {
      "constant": true,
      "inputs": [],
      "name": "owner",
      "outputs": [
        {
          "name": "",
          "type": "address"
        }
      ],
      "payable": false,
      "stateMutability": "view",
      "type": "function",
      "signature": "0x8da5cb5b"
    },
    {
      "constant": true,
      "inputs": [],
      "name": "isOwner",
      "outputs": [
        {
          "name": "",
          "type": "bool"
        }
      ],
      "payable": false,
      "stateMutability": "view",
      "type": "function",
      "signature": "0x8f32d59b"
    },
    {
      "constant": true,
      "inputs": [],
      "name": "symbol",
      "outputs": [
        {
          "name": "",
          "type": "string"
        }
      ],
      "payable": false,
      "stateMutability": "view",
      "type": "function",
      "signature": "0x95d89b41"
    },
    {
      "constant": false,
      "inputs": [
        {
          "name": "spender",
          "type": "address"
        },
        {
          "name": "subtractedValue",
          "type": "uint256"
        }
      ],
      "name": "decreaseAllowance",
      "outputs": [
        {
          "name": "",
          "type": "bool"
        }
      ],
      "payable": false,
      "stateMutability": "nonpayable",
      "type": "function",
      "signature": "0xa457c2d7"
    },
    {
      "constant": false,
      "inputs": [
        {
          "name": "_to",
          "type": "address"
        },
        {
          "name": "_value",
          "type": "uint256"
        }
      ],
      "name": "transfer",
      "outputs": [
        {
          "name": "success",
          "type": "bool"
        }
      ],
      "payable": false,
      "stateMutability": "nonpayable",
      "type": "function",
      "signature": "0xa9059cbb"
    },
    {
      "constant": true,
      "inputs": [],
      "name": "pollMember",
      "outputs": [
        {
          "name": "",
          "type": "address"
        }
      ],
      "payable": false,
      "stateMutability": "view",
      "type": "function",
      "signature": "0xd32e7f02"
    },
    {
      "constant": true,
      "inputs": [
        {
          "name": "owner",
          "type": "address"
        },
        {
          "name": "spender",
          "type": "address"
        }
      ],
      "name": "allowance",
      "outputs": [
        {
          "name": "",
          "type": "uint256"
        }
      ],
      "payable": false,
      "stateMutability": "view",
      "type": "function",
      "signature": "0xdd62ed3e"
    },
    {
      "constant": true,
      "inputs": [
        {
          "name": "_target",
          "type": "address"
        }
      ],
      "name": "isFrozen",
      "outputs": [
        {
          "name": "",
          "type": "bool"
        }
      ],
      "payable": false,
      "stateMutability": "view",
      "type": "function",
      "signature": "0xe5839836"
    },
    {
      "constant": false,
      "inputs": [
        {
          "name": "newOwner",
          "type": "address"
        }
      ],
      "name": "transferOwnership",
      "outputs": [],
      "payable": false,
      "stateMutability": "nonpayable",
      "type": "function",
      "signature": "0xf2fde38b"
    },
    {
      "inputs": [
        {
          "name": "_name",
          "type": "string"
        },
        {
          "name": "_symbol",
          "type": "string"
        },
        {
          "name": "_totalMintableSupply",
          "type": "uint256"
        },
        {
          "name": "_capPercent",
          "type": "uint256"
        }
      ],
      "payable": false,
      "stateMutability": "nonpayable",
      "type": "constructor",
      "signature": "constructor"
    },
    {
      "anonymous": false,
      "inputs": [
        {
          "indexed": true,
          "name": "previousOwner",
          "type": "address"
        },
        {
          "indexed": true,
          "name": "newOwner",
          "type": "address"
        }
      ],
      "name": "OwnershipTransferred",
      "type": "event",
      "signature": "0x8be0079c531659141344cd1fd0a4f28419497f9722a3daafe3b4186f6b6457e0"
    },
    {
      "anonymous": false,
      "inputs": [],
      "name": "MintingFinish",
      "type": "event",
      "signature": "0x47b21c3d8bed09faa6dd975d20986fabc5b54c1f66987d02792d51a7a4f55e52"
    },
    {
      "anonymous": false,
      "inputs": [
        {
          "indexed": false,
          "name": "target",
          "type": "address"
        },
        {
          "indexed": false,
          "name": "frozen",
          "type": "bool"
        }
      ],
      "name": "FrozenFunds",
      "type": "event",
      "signature": "0x48335238b4855f35377ed80f164e8c6f3c366e54ac00b96a6402d4a9814a03a5"
    },
    {
      "anonymous": false,
      "inputs": [
        {
          "indexed": true,
          "name": "from",
          "type": "address"
        },
        {
          "indexed": true,
          "name": "to",
          "type": "address"
        },
        {
          "indexed": false,
          "name": "value",
          "type": "uint256"
        }
      ],
      "name": "Transfer",
      "type": "event",
      "signature": "0xddf252ad1be2c89b69c2b068fc378daa952ba7f163c4a11628f55a4df523b3ef"
    },
    {
      "anonymous": false,
      "inputs": [
        {
          "indexed": true,
          "name": "owner",
          "type": "address"
        },
        {
          "indexed": true,
          "name": "spender",
          "type": "address"
        },
        {
          "indexed": false,
          "name": "value",
          "type": "uint256"
        }
      ],
      "name": "Approval",
      "type": "event",
      "signature": "0x8c5be1e5ebec7d5bd14f71427d1e84f3dd0314c0f7b2291e5b200ac8c7c3b925"
    },
    {
      "constant": false,
      "inputs": [
        {
          "name": "_treasuryAddress",
          "type": "address"
        }
      ],
      "name": "setTreasuryAddress",
      "outputs": [],
      "payable": false,
      "stateMutability": "nonpayable",
      "type": "function",
      "signature": "0x6605bfda"
    },
    {
      "constant": false,
      "inputs": [
        {
          "name": "_crowdSaleAddress",
          "type": "address"
        }
      ],
      "name": "setCrowdSaleAddress",
      "outputs": [],
      "payable": false,
      "stateMutability": "nonpayable",
      "type": "function",
      "signature": "0x8f456125"
    },
    {
      "constant": false,
      "inputs": [
        {
          "name": "_from",
          "type": "address"
        },
        {
          "name": "_value",
          "type": "uint256"
        }
      ],
      "name": "burnFrom",
      "outputs": [],
      "payable": false,
      "stateMutability": "nonpayable",
      "type": "function",
      "signature": "0x79cc6790"
    },
    {
      "constant": false,
      "inputs": [
        {
          "name": "_target",
          "type": "address"
        }
      ],
      "name": "freezeAccount",
      "outputs": [],
      "payable": false,
      "stateMutability": "nonpayable",
      "type": "function",
      "signature": "0xf26c159f"
    },
    {
      "constant": false,
      "inputs": [
        {
          "name": "_target",
          "type": "address"
        }
      ],
      "name": "unFreezeAccount",
      "outputs": [],
      "payable": false,
      "stateMutability": "nonpayable",
      "type": "function",
      "signature": "0x53cc2fae"
    },
    {
      "constant": false,
      "inputs": [
        {
          "name": "_to",
          "type": "address"
        },
        {
          "name": "_amount",
          "type": "uint256"
        }
      ],
      "name": "mint",
      "outputs": [
        {
          "name": "",
          "type": "bool"
        }
      ],
      "payable": false,
      "stateMutability": "nonpayable",
      "type": "function",
      "signature": "0x40c10f19"
    },
    {
      "constant": false,
      "inputs": [],
      "name": "finishMinting",
      "outputs": [
        {
          "name": "",
          "type": "bool"
        }
      ],
      "payable": false,
      "stateMutability": "nonpayable",
      "type": "function",
      "signature": "0x7d64bcb4"
    }
  ],
  "bytecode": "0x60806040526003805460ff199081169091556009805490911660121790553480156200002a57600080fd5b506040516200181e3803806200181e8339810160408181528251602084015191840151606085015160068054600160a060020a031916331790819055928601959390930193909291600160a060020a0316906000907f8be0079c531659141344cd1fd0a4f28419497f9722a3daafe3b4186f6b6457e0908290a38351620000b99060079060208701906200017a565b508251620000cf9060089060208601906200017a565b5060048290556200010a620000f38284640100000000620015526200011882021704565b612710640100000000620015806200015582021704565b600a55506200021f92505050565b6000808315156200012d57600091506200014e565b508282028284828115156200013e57fe5b04146200014a57600080fd5b8091505b5092915050565b6000808083116200016557600080fd5b82848115156200017157fe5b04949350505050565b828054600181600116156101000203166002900490600052602060002090601f016020900481019282601f10620001bd57805160ff1916838001178555620001ed565b82800160010185558215620001ed579182015b82811115620001ed578251825591602001919060010190620001d0565b50620001fb929150620001ff565b5090565b6200021c91905b80821115620001fb576000815560010162000206565b90565b6115ef806200022f6000396000f30060806040526004361061017f5763ffffffff7c01000000000000000000000000000000000000000000000000000000006000350416630184fc35811461018457806305d2035b146101b557806306fdde03146101de578063095ea7b31461026857806318160ddd1461028c57806323b872dd146102b3578063313ce567146102dd578063395093511461030857806340c10f191461032c5780634cb93ff81461035057806353cc2fae146103655780635706e8e7146103885780636605bfda1461039d578063683d8baf146103be57806370a08231146103d3578063715018a6146103f457806379cc6790146104095780637d64bcb41461042d578063860838a5146104425780638da5cb5b146104635780638f32d59b146104785780638f4561251461048d57806395d89b41146104ae578063a457c2d7146104c3578063a9059cbb146104e7578063d32e7f021461050b578063dd62ed3e14610520578063e583983614610547578063f26c159f14610568578063f2fde38b14610589575b600080fd5b34801561019057600080fd5b506101996105aa565b60408051600160a060020a039092168252519081900360200190f35b3480156101c157600080fd5b506101ca6105b9565b604080519115158252519081900360200190f35b3480156101ea57600080fd5b506101f36105c2565b6040805160208082528351818301528351919283929083019185019080838360005b8381101561022d578181015183820152602001610215565b50505050905090810190601f16801561025a5780820380516001836020036101000a031916815260200191505b509250505060405180910390f35b34801561027457600080fd5b506101ca600160a060020a0360043516602435610650565b34801561029857600080fd5b506102a16106ce565b60408051918252519081900360200190f35b3480156102bf57600080fd5b506101ca600160a060020a03600435811690602435166044356106d4565b3480156102e957600080fd5b506102f2610760565b6040805160ff9092168252519081900360200190f35b34801561031457600080fd5b506101ca600160a060020a0360043516602435610769565b34801561033857600080fd5b506101ca600160a060020a0360043516602435610819565b34801561035c57600080fd5b506102a1610894565b34801561037157600080fd5b50610386600160a060020a036004351661089a565b005b34801561039457600080fd5b506102a16109b9565b3480156103a957600080fd5b50610386600160a060020a03600435166109bf565b3480156103ca57600080fd5b506102a1610a17565b3480156103df57600080fd5b506102a1600160a060020a0360043516610a1d565b34801561040057600080fd5b50610386610a38565b34801561041557600080fd5b50610386600160a060020a0360043516602435610aa2565b34801561043957600080fd5b506101ca610b17565b34801561044e57600080fd5b506102a1600160a060020a0360043516610b8e565b34801561046f57600080fd5b50610199610ba0565b34801561048457600080fd5b506101ca610baf565b34801561049957600080fd5b50610386600160a060020a0360043516610bc0565b3480156104ba57600080fd5b506101f3610c18565b3480156104cf57600080fd5b506101ca600160a060020a0360043516602435610c73565b3480156104f357600080fd5b506101ca600160a060020a0360043516602435610cbe565b34801561051757600080fd5b50610199610d3f565b34801561052c57600080fd5b506102a1600160a060020a0360043581169060243516610d4e565b34801561055357600080fd5b506101ca600160a060020a0360043516610d79565b34801561057457600080fd5b50610386600160a060020a0360043516610d96565b34801561059557600080fd5b50610386600160a060020a0360043516610eb2565b600b54600160a060020a031681565b60035460ff1690565b6007805460408051602060026001851615610100026000190190941693909304601f810184900484028201840190925281815292918301828280156106485780601f1061061d57610100808354040283529160200191610648565b820191906000526020600020905b81548152906001019060200180831161062b57829003601f168201915b505050505081565b6000600160a060020a038316151561066757600080fd5b336000818152600160209081526040808320600160a060020a03881680855290835292819020869055805186815290519293927f8c5be1e5ebec7d5bd14f71427d1e84f3dd0314c0f7b2291e5b200ac8c7c3b925929181900390910190a350600192915050565b60025490565b600160a060020a038316600090815260056020526040812080548591901561074b57604080516000805160206115a4833981519152815260206004820152601860248201527f49732070617274206f66206365727461696e20706f6c6c730000000000000000604482015290519081900360640190fd5b610756868686610ece565b9695505050505050565b60095460ff1681565b6000600160a060020a038316151561078057600080fd5b336000908152600160209081526040808320600160a060020a03871684529091529020546107b4908363ffffffff610f6b16565b336000818152600160209081526040808320600160a060020a0389168085529083529281902085905580519485525191937f8c5be1e5ebec7d5bd14f71427d1e84f3dd0314c0f7b2291e5b200ac8c7c3b925929081900390910190a350600192915050565b600b54600090600160a060020a0316331461088357604080516000805160206115a4833981519152815260206004820152601760248201527f4f6e6c792063726f776473616c652063616e206d696e74000000000000000000604482015290519081900360640190fd5b61088d8383610f88565b9392505050565b600a5481565b600c54604080517fbbe7cbe60000000000000000000000000000000000000000000000000000000081523360048201529051600160a060020a039092169163bbe7cbe6916024808201926020929091908290030181600087803b15801561090057600080fd5b505af1158015610914573d6000803e3d6000fd5b505050506040513d602081101561092a57600080fd5b505115156109ad57604080516000805160206115a4833981519152815260206004820152602360248201527f4e6f74206120706f6c6c2c2063616e6e6f7420667265657a652f20756e66726560448201527f657a650000000000000000000000000000000000000000000000000000000000606482015290519081900360840190fd5b6109b681611014565b50565b60045481565b6109c7610baf565b15156109d257600080fd5b600c54600160a060020a0316156109e857600080fd5b600c805473ffffffffffffffffffffffffffffffffffffffff1916600160a060020a0392909216919091179055565b60045490565b600160a060020a031660009081526020819052604090205490565b610a40610baf565b1515610a4b57600080fd5b600654604051600091600160a060020a0316907f8be0079c531659141344cd1fd0a4f28419497f9722a3daafe3b4186f6b6457e0908390a36006805473ffffffffffffffffffffffffffffffffffffffff19169055565b600c54600160a060020a03163314610b0957604080516000805160206115a4833981519152815260206004820152601660248201527f4f6e6c792074726561737572792063616e206275726e00000000000000000000604482015290519081900360640190fd5b610b138282611105565b5050565b600b54600090600160a060020a03163314610b8157604080516000805160206115a4833981519152815260206004820152601760248201527f4f6e6c792063726f776473616c652063616e206d696e74000000000000000000604482015290519081900360640190fd5b610b896111d3565b905090565b60056020526000908152604090205481565b600654600160a060020a031690565b600654600160a060020a0316331490565b610bc8610baf565b1515610bd357600080fd5b600b54600160a060020a031615610be957600080fd5b600b805473ffffffffffffffffffffffffffffffffffffffff1916600160a060020a0392909216919091179055565b6008805460408051602060026001851615610100026000190190941693909304601f810184900484028201840190925281815292918301828280156106485780601f1061061d57610100808354040283529160200191610648565b6000600160a060020a0383161515610c8a57600080fd5b336000908152600160209081526040808320600160a060020a03871684529091529020546107b4908363ffffffff61122216565b336000818152600560205260408120805491929115610d2c57604080516000805160206115a4833981519152815260206004820152601860248201527f49732070617274206f66206365727461696e20706f6c6c730000000000000000604482015290519081900360640190fd5b610d368585611239565b95945050505050565b600c54600160a060020a031681565b600160a060020a03918216600090815260016020908152604080832093909416825291909152205490565b600160a060020a0316600090815260056020526040902054151590565b600c54604080517fbbe7cbe60000000000000000000000000000000000000000000000000000000081523360048201529051600160a060020a039092169163bbe7cbe6916024808201926020929091908290030181600087803b158015610dfc57600080fd5b505af1158015610e10573d6000803e3d6000fd5b505050506040513d6020811015610e2657600080fd5b50511515610ea957604080516000805160206115a4833981519152815260206004820152602360248201527f4e6f74206120706f6c6c2c2063616e6e6f7420667265657a652f20756e66726560448201527f657a650000000000000000000000000000000000000000000000000000000000606482015290519081900360840190fd5b6109b681611246565b610eba610baf565b1515610ec557600080fd5b6109b681611338565b600160a060020a0383166000908152600160209081526040808320338452909152812054821115610efe57600080fd5b600160a060020a0384166000908152600160209081526040808320338452909152902054610f32908363ffffffff61122216565b600160a060020a0385166000908152600160209081526040808320338452909152902055610f618484846113b6565b5060019392505050565b600082820183811015610f7d57600080fd5b8091505b5092915050565b60035460009060ff1615610f9b57600080fd5b600454610fa66106ce565b111561100157604080516000805160206115a4833981519152815260206004820181905260248201527f43616e2774206d696e74206d6f7265207468616e20746f74616c537570706c79604482015290519081900360640190fd5b61100b83836114a8565b50600192915050565b600160a060020a0381166000908152600560209081526040808320338452600181019092529091205460ff16151561109b57604080516000805160206115a4833981519152815260206004820152601f60248201527f4e6f7420616c72656164792066726f7a656e206279207468697320706f6c6c00604482015290519081900360640190fd5b80546000190181553360009081526001820160209081526040808320805460ff191690558051600160a060020a03861681529182019290925281517f48335238b4855f35377ed80f164e8c6f3c366e54ac00b96a6402d4a9814a03a5929181900390910190a15050565b600160a060020a038216151561111a57600080fd5b600160a060020a03821660009081526020819052604090205481111561113f57600080fd5b600254611152908263ffffffff61122216565b600255600160a060020a03821660009081526020819052604090205461117e908263ffffffff61122216565b600160a060020a038316600081815260208181526040808320949094558351858152935191937fddf252ad1be2c89b69c2b068fc378daa952ba7f163c4a11628f55a4df523b3ef929081900390910190a35050565b60035460009060ff16156111e657600080fd5b6003805460ff191660011790556040517f47b21c3d8bed09faa6dd975d20986fabc5b54c1f66987d02792d51a7a4f55e5290600090a150600190565b6000808383111561123257600080fd5b5050900390565b600061100b3384846113b6565b600160a060020a0381166000908152600560209081526040808320338452600181019092529091205460ff16156112cc57604080516000805160206115a4833981519152815260206004820152601b60248201527f416c72656164792066726f7a656e206279207468697320706f6c6c0000000000604482015290519081900360640190fd5b8054600190810182553360009081528282016020908152604091829020805460ff1916841790558151600160a060020a03861681529081019290925280517f48335238b4855f35377ed80f164e8c6f3c366e54ac00b96a6402d4a9814a03a59281900390910190a15050565b600160a060020a038116151561134d57600080fd5b600654604051600160a060020a038084169216907f8be0079c531659141344cd1fd0a4f28419497f9722a3daafe3b4186f6b6457e090600090a36006805473ffffffffffffffffffffffffffffffffffffffff1916600160a060020a0392909216919091179055565b600160a060020a0383166000908152602081905260409020548111156113db57600080fd5b600160a060020a03821615156113f057600080fd5b600160a060020a038316600090815260208190526040902054611419908263ffffffff61122216565b600160a060020a03808516600090815260208190526040808220939093559084168152205461144e908263ffffffff610f6b16565b600160a060020a038084166000818152602081815260409182902094909455805185815290519193928716927fddf252ad1be2c89b69c2b068fc378daa952ba7f163c4a11628f55a4df523b3ef92918290030190a3505050565b600160a060020a03821615156114bd57600080fd5b6002546114d0908263ffffffff610f6b16565b600255600160a060020a0382166000908152602081905260409020546114fc908263ffffffff610f6b16565b600160a060020a0383166000818152602081815260408083209490945583518581529351929391927fddf252ad1be2c89b69c2b068fc378daa952ba7f163c4a11628f55a4df523b3ef9281900390910190a35050565b6000808315156115655760009150610f81565b5082820282848281151561157557fe5b0414610f7d57600080fd5b60008080831161158f57600080fd5b828481151561159a57fe5b04949350505050560008c379a000000000000000000000000000000000000000000000000000000000a165627a7a72305820137d9b1164ffcbed69fe0c0af9820b53c10d77e63b2179ac541fcb6ff1ae9d3c0029",
  "source": "pragma solidity ^0.4.25;\r\n\r\nimport \"electusvoting/contracts/Token/FreezableToken.sol\";\r\nimport \"../Interfaces/IPollAddresses.sol\";\r\nimport \"openzeppelin-solidity/contracts/ownership/Ownable.sol\";\r\n\r\n\r\ncontract DaicoToken is FreezableToken, Ownable {\r\n    string public name;\r\n    string public symbol;\r\n    uint8 public decimals = 18;\r\n    uint public capTokenAmount;\r\n    address public crowdSaleAddress;\r\n    IPollAddresses public pollMember;\r\n\r\n    constructor(string _name, string _symbol, uint _totalMintableSupply, uint _capPercent) public {\r\n        name = _name;\r\n        symbol = _symbol;\r\n        totalMintableSupply = _totalMintableSupply;\r\n        capTokenAmount = SafeMath.div(SafeMath.mul(_capPercent, _totalMintableSupply), 10000);\r\n    }\r\n\r\n    modifier onlyTreasury {\r\n        require(msg.sender == address(pollMember), \"Only treasury can burn\");\r\n        _;\r\n    }\r\n\r\n    modifier onlyCrowdSale() {\r\n        require(msg.sender == crowdSaleAddress, \"Only crowdsale can mint\");\r\n        _;\r\n    }\r\n\r\n    modifier isPollAddress() {\r\n        require(pollMember.isPollAddress(msg.sender), \"Not a poll, cannot freeze/ unfreeze\");\r\n        _;\r\n    }\r\n\r\n    function setTreasuryAddress(address _treasuryAddress) external onlyOwner {\r\n        require(address(pollMember) == address(0));\r\n        pollMember = IPollAddresses(_treasuryAddress);\r\n    }\r\n\r\n    function setCrowdSaleAddress(address _crowdSaleAddress) external onlyOwner {\r\n        require(crowdSaleAddress == address(0));\r\n        crowdSaleAddress = _crowdSaleAddress;\r\n    }\r\n\r\n    function burnFrom(address _from, uint256 _value) external onlyTreasury {\r\n        super._burn(_from, _value);\r\n    }\r\n\r\n    function freezeAccount(address _target) public isPollAddress {\r\n        super.freezeAccount(_target);\r\n    }\r\n\r\n    function unFreezeAccount(address _target) public isPollAddress {\r\n        super.unFreezeAccount(_target);\r\n    }\r\n\r\n    function mint(address _to, uint256 _amount) public onlyCrowdSale returns (bool) {\r\n        return super.mint(_to, _amount);\r\n    }\r\n\r\n    function finishMinting() public onlyCrowdSale returns (bool) {\r\n        return super.finishMinting();\r\n    }\r\n}",
  "sourcePath": "C:/Users/Naina/source/repos/ETH_Singapore_Hackathon_SC/contracts/Token/DaicoToken.sol",
  "compiler": {
    "name": "solc",
    "version": "0.4.25+commit.59dbf8f1.Emscripten.clang"
  },
  "schemaVersion": "3.0.0-beta.0",
  "updatedAt": "2018-12-08T15:03:41.525Z"
}