{
  "contractName": "PollFactory",
  "abi": [
    {
      "constant": true,
      "inputs": [],
      "name": "crowdSaleAddress",
      "outputs": [
        {
          "name": "",
          "type": "address"
        }
      ],
      "payable": false,
      "stateMutability": "view",
      "type": "function"
    },
    {
      "constant": false,
      "inputs": [
        {
          "name": "alerter",
          "type": "address"
        }
      ],
      "name": "removeAlerter",
      "outputs": [],
      "payable": false,
      "stateMutability": "nonpayable",
      "type": "function"
    },
    {
      "constant": false,
      "inputs": [],
      "name": "onR1Start",
      "outputs": [],
      "payable": false,
      "stateMutability": "nonpayable",
      "type": "function"
    },
    {
      "constant": true,
      "inputs": [],
      "name": "teamAddress",
      "outputs": [
        {
          "name": "",
          "type": "address"
        }
      ],
      "payable": false,
      "stateMutability": "view",
      "type": "function"
    },
    {
      "constant": true,
      "inputs": [],
      "name": "capPercent",
      "outputs": [
        {
          "name": "",
          "type": "uint256"
        }
      ],
      "payable": false,
      "stateMutability": "view",
      "type": "function"
    },
    {
      "constant": true,
      "inputs": [],
      "name": "pendingAdmin",
      "outputs": [
        {
          "name": "",
          "type": "address"
        }
      ],
      "payable": false,
      "stateMutability": "view",
      "type": "function"
    },
    {
      "constant": true,
      "inputs": [],
      "name": "getOperators",
      "outputs": [
        {
          "name": "",
          "type": "address[]"
        }
      ],
      "payable": false,
      "stateMutability": "view",
      "type": "function"
    },
    {
      "constant": true,
      "inputs": [],
      "name": "daiAddress",
      "outputs": [
        {
          "name": "",
          "type": "address"
        }
      ],
      "payable": false,
      "stateMutability": "view",
      "type": "function"
    },
    {
      "constant": false,
      "inputs": [],
      "name": "refundByKill",
      "outputs": [],
      "payable": false,
      "stateMutability": "nonpayable",
      "type": "function"
    },
    {
      "constant": true,
      "inputs": [],
      "name": "pivotTime",
      "outputs": [
        {
          "name": "",
          "type": "uint256"
        }
      ],
      "payable": false,
      "stateMutability": "view",
      "type": "function"
    },
    {
      "constant": false,
      "inputs": [],
      "name": "enableCrowdsaleRefund",
      "outputs": [],
      "payable": false,
      "stateMutability": "nonpayable",
      "type": "function"
    },
    {
      "constant": false,
      "inputs": [
        {
          "name": "token",
          "type": "address"
        },
        {
          "name": "amount",
          "type": "uint256"
        },
        {
          "name": "sendTo",
          "type": "address"
        }
      ],
      "name": "withdrawToken",
      "outputs": [],
      "payable": false,
      "stateMutability": "nonpayable",
      "type": "function"
    },
    {
      "constant": false,
      "inputs": [],
      "name": "refundBySoftcapFail",
      "outputs": [],
      "payable": false,
      "stateMutability": "nonpayable",
      "type": "function"
    },
    {
      "constant": false,
      "inputs": [
        {
          "name": "newAlerter",
          "type": "address"
        }
      ],
      "name": "addAlerter",
      "outputs": [],
      "payable": false,
      "stateMutability": "nonpayable",
      "type": "function"
    },
    {
      "constant": true,
      "inputs": [],
      "name": "killPollAddress",
      "outputs": [
        {
          "name": "",
          "type": "address"
        }
      ],
      "payable": false,
      "stateMutability": "view",
      "type": "function"
    },
    {
      "constant": true,
      "inputs": [],
      "name": "sanityRatesContract",
      "outputs": [
        {
          "name": "",
          "type": "address"
        }
      ],
      "payable": false,
      "stateMutability": "view",
      "type": "function"
    },
    {
      "constant": true,
      "inputs": [],
      "name": "killAcceptancePercent",
      "outputs": [
        {
          "name": "",
          "type": "uint256"
        }
      ],
      "payable": false,
      "stateMutability": "view",
      "type": "function"
    },
    {
      "constant": false,
      "inputs": [],
      "name": "processContribution",
      "outputs": [],
      "payable": true,
      "stateMutability": "payable",
      "type": "function"
    },
    {
      "constant": true,
      "inputs": [],
      "name": "totalEtherRaised",
      "outputs": [
        {
          "name": "",
          "type": "uint256"
        }
      ],
      "payable": false,
      "stateMutability": "view",
      "type": "function"
    },
    {
      "constant": false,
      "inputs": [],
      "name": "renounceOwnership",
      "outputs": [],
      "payable": false,
      "stateMutability": "nonpayable",
      "type": "function"
    },
    {
      "constant": true,
      "inputs": [],
      "name": "tapAcceptancePercent",
      "outputs": [
        {
          "name": "",
          "type": "uint256"
        }
      ],
      "payable": false,
      "stateMutability": "view",
      "type": "function"
    },
    {
      "constant": false,
      "inputs": [
        {
          "name": "newAdmin",
          "type": "address"
        }
      ],
      "name": "transferAdmin",
      "outputs": [],
      "payable": false,
      "stateMutability": "nonpayable",
      "type": "function"
    },
    {
      "constant": false,
      "inputs": [],
      "name": "claimAdmin",
      "outputs": [],
      "payable": false,
      "stateMutability": "nonpayable",
      "type": "function"
    },
    {
      "constant": false,
      "inputs": [
        {
          "name": "newAdmin",
          "type": "address"
        }
      ],
      "name": "transferAdminQuickly",
      "outputs": [],
      "payable": false,
      "stateMutability": "nonpayable",
      "type": "function"
    },
    {
      "constant": true,
      "inputs": [],
      "name": "getAlerters",
      "outputs": [
        {
          "name": "",
          "type": "address[]"
        }
      ],
      "payable": false,
      "stateMutability": "view",
      "type": "function"
    },
    {
      "constant": true,
      "inputs": [],
      "name": "erc20Token",
      "outputs": [
        {
          "name": "",
          "type": "address"
        }
      ],
      "payable": false,
      "stateMutability": "view",
      "type": "function"
    },
    {
      "constant": true,
      "inputs": [],
      "name": "owner",
      "outputs": [
        {
          "name": "",
          "type": "address"
        }
      ],
      "payable": false,
      "stateMutability": "view",
      "type": "function"
    },
    {
      "constant": true,
      "inputs": [],
      "name": "isOwner",
      "outputs": [
        {
          "name": "",
          "type": "bool"
        }
      ],
      "payable": false,
      "stateMutability": "view",
      "type": "function"
    },
    {
      "constant": false,
      "inputs": [
        {
          "name": "_crowdSaleAddress",
          "type": "address"
        }
      ],
      "name": "setCrowdSaleAddress",
      "outputs": [],
      "payable": false,
      "stateMutability": "nonpayable",
      "type": "function"
    },
    {
      "constant": false,
      "inputs": [
        {
          "name": "newOperator",
          "type": "address"
        }
      ],
      "name": "addOperator",
      "outputs": [],
      "payable": false,
      "stateMutability": "nonpayable",
      "type": "function"
    },
    {
      "constant": true,
      "inputs": [],
      "name": "currentTap",
      "outputs": [
        {
          "name": "",
          "type": "uint256"
        }
      ],
      "payable": false,
      "stateMutability": "view",
      "type": "function"
    },
    {
      "constant": false,
      "inputs": [
        {
          "name": "operator",
          "type": "address"
        }
      ],
      "name": "removeOperator",
      "outputs": [],
      "payable": false,
      "stateMutability": "nonpayable",
      "type": "function"
    },
    {
      "constant": true,
      "inputs": [],
      "name": "kyberNetwork",
      "outputs": [
        {
          "name": "",
          "type": "address"
        }
      ],
      "payable": false,
      "stateMutability": "view",
      "type": "function"
    },
    {
      "constant": true,
      "inputs": [],
      "name": "state",
      "outputs": [
        {
          "name": "",
          "type": "uint8"
        }
      ],
      "payable": false,
      "stateMutability": "view",
      "type": "function"
    },
    {
      "constant": true,
      "inputs": [],
      "name": "pollDeployer",
      "outputs": [
        {
          "name": "",
          "type": "address"
        }
      ],
      "payable": false,
      "stateMutability": "view",
      "type": "function"
    },
    {
      "constant": true,
      "inputs": [],
      "name": "tapPoll",
      "outputs": [
        {
          "name": "",
          "type": "address"
        }
      ],
      "payable": false,
      "stateMutability": "view",
      "type": "function"
    },
    {
      "constant": false,
      "inputs": [
        {
          "name": "amount",
          "type": "uint256"
        },
        {
          "name": "sendTo",
          "type": "address"
        }
      ],
      "name": "withdrawEther",
      "outputs": [],
      "payable": false,
      "stateMutability": "nonpayable",
      "type": "function"
    },
    {
      "constant": true,
      "inputs": [],
      "name": "splineHeightAtPivot",
      "outputs": [
        {
          "name": "",
          "type": "uint256"
        }
      ],
      "payable": false,
      "stateMutability": "view",
      "type": "function"
    },
    {
      "constant": true,
      "inputs": [],
      "name": "conversionRatesContract",
      "outputs": [
        {
          "name": "",
          "type": "address"
        }
      ],
      "payable": false,
      "stateMutability": "view",
      "type": "function"
    },
    {
      "constant": true,
      "inputs": [],
      "name": "tradeEnabled",
      "outputs": [
        {
          "name": "",
          "type": "bool"
        }
      ],
      "payable": false,
      "stateMutability": "view",
      "type": "function"
    },
    {
      "constant": true,
      "inputs": [],
      "name": "withdrawnTillNow",
      "outputs": [
        {
          "name": "",
          "type": "uint256"
        }
      ],
      "payable": false,
      "stateMutability": "view",
      "type": "function"
    },
    {
      "constant": true,
      "inputs": [],
      "name": "initialTap",
      "outputs": [
        {
          "name": "",
          "type": "uint256"
        }
      ],
      "payable": false,
      "stateMutability": "view",
      "type": "function"
    },
    {
      "constant": true,
      "inputs": [
        {
          "name": "",
          "type": "address"
        }
      ],
      "name": "pollAddresses",
      "outputs": [
        {
          "name": "",
          "type": "bool"
        }
      ],
      "payable": false,
      "stateMutability": "view",
      "type": "function"
    },
    {
      "constant": false,
      "inputs": [
        {
          "name": "newOwner",
          "type": "address"
        }
      ],
      "name": "transferOwnership",
      "outputs": [],
      "payable": false,
      "stateMutability": "nonpayable",
      "type": "function"
    },
    {
      "constant": true,
      "inputs": [],
      "name": "admin",
      "outputs": [
        {
          "name": "",
          "type": "address"
        }
      ],
      "payable": false,
      "stateMutability": "view",
      "type": "function"
    },
    {
      "constant": true,
      "inputs": [],
      "name": "tapIncrementFactor",
      "outputs": [
        {
          "name": "",
          "type": "uint256"
        }
      ],
      "payable": false,
      "stateMutability": "view",
      "type": "function"
    },
    {
      "inputs": [
        {
          "name": "_erc20Token",
          "type": "address"
        },
        {
          "name": "_teamAddress",
          "type": "address"
        },
        {
          "name": "_initialTap",
          "type": "uint256"
        },
        {
          "name": "_capPercent",
          "type": "uint256"
        },
        {
          "name": "_killAcceptancePercent",
          "type": "uint256"
        },
        {
          "name": "_tapAcceptancePercent",
          "type": "uint256"
        },
        {
          "name": "_tapIncrementFactor",
          "type": "uint256"
        },
        {
          "name": "_pollDeployer",
          "type": "address"
        },
        {
          "name": "_kyberNetwork",
          "type": "address"
        },
        {
          "name": "_ratesContract",
          "type": "address"
        },
        {
          "name": "_daiAddress",
          "type": "address"
        }
      ],
      "payable": false,
      "stateMutability": "nonpayable",
      "type": "constructor"
    },
    {
      "payable": true,
      "stateMutability": "payable",
      "type": "fallback"
    },
    {
      "anonymous": false,
      "inputs": [],
      "name": "RefundStarted",
      "type": "event"
    },
    {
      "anonymous": false,
      "inputs": [
        {
          "indexed": false,
          "name": "amountWei",
          "type": "uint256"
        }
      ],
      "name": "Withdraw",
      "type": "event"
    },
    {
      "anonymous": false,
      "inputs": [
        {
          "indexed": false,
          "name": "amountWei",
          "type": "uint256"
        },
        {
          "indexed": false,
          "name": "contractAddress",
          "type": "address"
        }
      ],
      "name": "TapIncreased",
      "type": "event"
    },
    {
      "anonymous": false,
      "inputs": [
        {
          "indexed": false,
          "name": "tapPollAddress",
          "type": "address"
        }
      ],
      "name": "TapPollCreated",
      "type": "event"
    },
    {
      "anonymous": false,
      "inputs": [
        {
          "indexed": false,
          "name": "token",
          "type": "address"
        },
        {
          "indexed": false,
          "name": "amount",
          "type": "uint256"
        }
      ],
      "name": "DepositToken",
      "type": "event"
    },
    {
      "anonymous": false,
      "inputs": [
        {
          "indexed": true,
          "name": "origin",
          "type": "address"
        },
        {
          "indexed": false,
          "name": "src",
          "type": "address"
        },
        {
          "indexed": false,
          "name": "srcAmount",
          "type": "uint256"
        },
        {
          "indexed": false,
          "name": "destToken",
          "type": "address"
        },
        {
          "indexed": false,
          "name": "destAmount",
          "type": "uint256"
        },
        {
          "indexed": false,
          "name": "destAddress",
          "type": "address"
        }
      ],
      "name": "TradeExecute",
      "type": "event"
    },
    {
      "anonymous": false,
      "inputs": [
        {
          "indexed": false,
          "name": "enable",
          "type": "bool"
        }
      ],
      "name": "TradeEnabled",
      "type": "event"
    },
    {
      "anonymous": false,
      "inputs": [
        {
          "indexed": false,
          "name": "network",
          "type": "address"
        },
        {
          "indexed": false,
          "name": "rate",
          "type": "address"
        },
        {
          "indexed": false,
          "name": "sanity",
          "type": "address"
        }
      ],
      "name": "SetContractAddresses",
      "type": "event"
    },
    {
      "anonymous": false,
      "inputs": [
        {
          "indexed": false,
          "name": "token",
          "type": "address"
        },
        {
          "indexed": false,
          "name": "amount",
          "type": "uint256"
        },
        {
          "indexed": false,
          "name": "sendTo",
          "type": "address"
        }
      ],
      "name": "TokenWithdraw",
      "type": "event"
    },
    {
      "anonymous": false,
      "inputs": [
        {
          "indexed": false,
          "name": "amount",
          "type": "uint256"
        },
        {
          "indexed": false,
          "name": "sendTo",
          "type": "address"
        }
      ],
      "name": "EtherWithdraw",
      "type": "event"
    },
    {
      "anonymous": false,
      "inputs": [
        {
          "indexed": false,
          "name": "pendingAdmin",
          "type": "address"
        }
      ],
      "name": "TransferAdminPending",
      "type": "event"
    },
    {
      "anonymous": false,
      "inputs": [
        {
          "indexed": false,
          "name": "newAdmin",
          "type": "address"
        },
        {
          "indexed": false,
          "name": "previousAdmin",
          "type": "address"
        }
      ],
      "name": "AdminClaimed",
      "type": "event"
    },
    {
      "anonymous": false,
      "inputs": [
        {
          "indexed": false,
          "name": "newAlerter",
          "type": "address"
        },
        {
          "indexed": false,
          "name": "isAdd",
          "type": "bool"
        }
      ],
      "name": "AlerterAdded",
      "type": "event"
    },
    {
      "anonymous": false,
      "inputs": [
        {
          "indexed": false,
          "name": "newOperator",
          "type": "address"
        },
        {
          "indexed": false,
          "name": "isAdd",
          "type": "bool"
        }
      ],
      "name": "OperatorAdded",
      "type": "event"
    },
    {
      "anonymous": false,
      "inputs": [
        {
          "indexed": false,
          "name": "tokenHolder",
          "type": "address"
        },
        {
          "indexed": false,
          "name": "amountWei",
          "type": "uint256"
        },
        {
          "indexed": false,
          "name": "amountDai",
          "type": "uint256"
        },
        {
          "indexed": false,
          "name": "tokenAmount",
          "type": "uint256"
        }
      ],
      "name": "RefundSent",
      "type": "event"
    },
    {
      "anonymous": false,
      "inputs": [],
      "name": "DaicoRefunded",
      "type": "event"
    },
    {
      "anonymous": false,
      "inputs": [
        {
          "indexed": true,
          "name": "previousOwner",
          "type": "address"
        },
        {
          "indexed": true,
          "name": "newOwner",
          "type": "address"
        }
      ],
      "name": "OwnershipTransferred",
      "type": "event"
    },
    {
      "constant": false,
      "inputs": [],
      "name": "createKillPoll",
      "outputs": [],
      "payable": false,
      "stateMutability": "nonpayable",
      "type": "function"
    },
    {
      "constant": false,
      "inputs": [],
      "name": "executeKill",
      "outputs": [],
      "payable": false,
      "stateMutability": "nonpayable",
      "type": "function"
    },
    {
      "constant": false,
      "inputs": [],
      "name": "createTapIncrementPoll",
      "outputs": [],
      "payable": false,
      "stateMutability": "nonpayable",
      "type": "function"
    },
    {
      "constant": false,
      "inputs": [],
      "name": "increaseTap",
      "outputs": [],
      "payable": false,
      "stateMutability": "nonpayable",
      "type": "function"
    },
    {
      "constant": false,
      "inputs": [],
      "name": "onCrowdSaleR1End",
      "outputs": [],
      "payable": false,
      "stateMutability": "nonpayable",
      "type": "function"
    },
    {
      "constant": false,
      "inputs": [
        {
          "name": "_amount",
          "type": "uint256"
        }
      ],
      "name": "withdrawAmount",
      "outputs": [],
      "payable": false,
      "stateMutability": "nonpayable",
      "type": "function"
    },
    {
      "constant": true,
      "inputs": [
        {
          "name": "_address",
          "type": "address"
        }
      ],
      "name": "isPollAddress",
      "outputs": [
        {
          "name": "",
          "type": "bool"
        }
      ],
      "payable": false,
      "stateMutability": "view",
      "type": "function"
    },
    {
      "constant": false,
      "inputs": [
        {
          "name": "srcToken",
          "type": "address"
        },
        {
          "name": "srcAmount",
          "type": "uint256"
        },
        {
          "name": "destToken",
          "type": "address"
        },
        {
          "name": "destAddress",
          "type": "address"
        },
        {
          "name": "conversionRate",
          "type": "uint256"
        },
        {
          "name": "validate",
          "type": "bool"
        }
      ],
      "name": "trade",
      "outputs": [
        {
          "name": "",
          "type": "bool"
        }
      ],
      "payable": true,
      "stateMutability": "payable",
      "type": "function"
    },
    {
      "constant": false,
      "inputs": [],
      "name": "enableTrade",
      "outputs": [
        {
          "name": "",
          "type": "bool"
        }
      ],
      "payable": false,
      "stateMutability": "nonpayable",
      "type": "function"
    },
    {
      "constant": false,
      "inputs": [],
      "name": "disableTrade",
      "outputs": [
        {
          "name": "",
          "type": "bool"
        }
      ],
      "payable": false,
      "stateMutability": "nonpayable",
      "type": "function"
    },
    {
      "constant": false,
      "inputs": [
        {
          "name": "_kyberNetwork",
          "type": "address"
        },
        {
          "name": "_conversionRates",
          "type": "address"
        },
        {
          "name": "_sanityRates",
          "type": "address"
        }
      ],
      "name": "setContracts",
      "outputs": [],
      "payable": false,
      "stateMutability": "nonpayable",
      "type": "function"
    },
    {
      "constant": true,
      "inputs": [],
      "name": "canIncreaseTap",
      "outputs": [
        {
          "name": "",
          "type": "bool"
        }
      ],
      "payable": false,
      "stateMutability": "view",
      "type": "function"
    },
    {
      "constant": true,
      "inputs": [],
      "name": "canKill",
      "outputs": [
        {
          "name": "",
          "type": "bool"
        }
      ],
      "payable": false,
      "stateMutability": "view",
      "type": "function"
    },
    {
      "constant": true,
      "inputs": [
        {
          "name": "token",
          "type": "address"
        }
      ],
      "name": "getBalance",
      "outputs": [
        {
          "name": "",
          "type": "uint256"
        }
      ],
      "payable": false,
      "stateMutability": "view",
      "type": "function"
    },
    {
      "constant": true,
      "inputs": [
        {
          "name": "src",
          "type": "address"
        },
        {
          "name": "dest",
          "type": "address"
        },
        {
          "name": "srcQty",
          "type": "uint256"
        },
        {
          "name": "rate",
          "type": "uint256"
        }
      ],
      "name": "getDestQty",
      "outputs": [
        {
          "name": "",
          "type": "uint256"
        }
      ],
      "payable": false,
      "stateMutability": "view",
      "type": "function"
    },
    {
      "constant": true,
      "inputs": [
        {
          "name": "src",
          "type": "address"
        },
        {
          "name": "dest",
          "type": "address"
        },
        {
          "name": "dstQty",
          "type": "uint256"
        },
        {
          "name": "rate",
          "type": "uint256"
        }
      ],
      "name": "getSrcQty",
      "outputs": [
        {
          "name": "",
          "type": "uint256"
        }
      ],
      "payable": false,
      "stateMutability": "view",
      "type": "function"
    },
    {
      "constant": true,
      "inputs": [
        {
          "name": "src",
          "type": "address"
        },
        {
          "name": "dest",
          "type": "address"
        },
        {
          "name": "srcQty",
          "type": "uint256"
        },
        {
          "name": "blockNumber",
          "type": "uint256"
        }
      ],
      "name": "getConversionRate",
      "outputs": [
        {
          "name": "",
          "type": "uint256"
        }
      ],
      "payable": false,
      "stateMutability": "view",
      "type": "function"
    }
  ],
  "bytecode": "0x608060405234801561001057600080fd5b506040516101608062003cfb83398101604081815282516020840151918401516060850151608086015160a087015160c088015160e08901516101008a01516101208b0151610140909b015160008054600160a060020a0319163317808255999c9a9b989a9799969895979496939592949391928d928d928d928a928a928892600160a060020a0392909216917f8be0079c531659141344cd1fd0a4f28419497f9722a3daafe3b4186f6b6457e0908290a360038054600160a060020a039788166101000261010060a860020a031990911617905560068054958716600160a060020a031996871617905560019390935560099190915560048054918516918416919091179055600a80549190931690821617909155600b80549091163317905560508711156101c757604080517f08c379a000000000000000000000000000000000000000000000000000000000815260206004820152602860248201527f4b696c6c20416363657074616e63652073686f756c64206265206c657373207460448201527f68616e2038302025000000000000000000000000000000000000000000000000606482015290519081900360840190fd5b603286101561025d57604080517f08c379a000000000000000000000000000000000000000000000000000000000815260206004820152602660248201527f4174206c6561737420353025206d757374206163636570742074617020696e6360448201527f72656d656e740000000000000000000000000000000000000000000000000000606482015290519081900360840190fd5b5060179690965560159490945550601691909155600955601a8054600160a060020a03928316600160a060020a031991821617909155601b8054939092169216919091179055505050613a4580620002b66000396000f3006080604052600436106102e95763ffffffff7c010000000000000000000000000000000000000000000000000000000060003504166299d38681146103395780630184fc351461036257806301a12fd314610393578063036fba10146103b65780630562b9f7146103cb57806313845a70146103e357806316b6f900146103f85780631be484391461040d5780631c75f08514610422578063259845f814610437578063267822471461045e57806327a099d8146104735780632c387275146104d85780632db013bc146104ed57806332486b27146105025780633b64e77e146105175780633ccdbb281461052c5780633cf17a0514610557578063408ee7fe1461056c57806346da1db81461058d578063478960c3146105a257806347e6924f146105b75780635613ba40146105cc578063677ab197146105e1578063691a5842146105e95780636940030f146105fe5780636cf6981114610613578063715018a61461063f57806371fa1d3a1461065457806375829def1461066957806377f50f971461068a5780637acc86781461069f5780637c423f54146106c05780637cd44272146106d55780638a13eea7146107025780638da5cb5b146107175780638f32d59b1461072c5780638f456125146107415780639870d7fe14610762578063a59053db14610783578063a7fca95314610798578063ac8a584a146107c5578063b3066d49146107e6578063b78b842d14610813578063bbe7cbe614610828578063c19d93fb14610849578063c29028f214610882578063c7904d2414610897578063cae6b9c5146108ac578063ce56c454146108c1578063cf65929e146108e5578063d5847d33146108fa578063d621e8131461090f578063d8e589a314610924578063dec9091814610939578063e68c9fe11461094e578063e69962911461096f578063efe1497f14610984578063f2fde38b14610999578063f851a440146109ba578063f8b2cb4f146109cf578063f95b2b55146109f0578063fa64dffa14610a05575b6040805173eeeeeeeeeeeeeeeeeeeeeeeeeeeeeeeeeeeeeeee815234602082015281517f2d0c0a8842b9944ece1495eb61121621b5e36bd6af3bba0318c695f525aef79f929181900390910190a1005b34801561034557600080fd5b5061034e610a32565b604080519115158252519081900360200190f35b34801561036e57600080fd5b50610377610abc565b60408051600160a060020a039092168252519081900360200190f35b34801561039f57600080fd5b506103b4600160a060020a0360043516610acb565b005b3480156103c257600080fd5b506103b4610c43565b3480156103d757600080fd5b506103b4600435610d32565b3480156103ef57600080fd5b506103b46111d9565b34801561040457600080fd5b506103b4611247565b34801561041957600080fd5b506103b4611496565b34801561042e57600080fd5b506103776117bc565b34801561044357600080fd5b5061044c6117cb565b60408051918252519081900360200190f35b34801561046a57600080fd5b506103776117d1565b34801561047f57600080fd5b506104886117e0565b60408051602080825283518183015283519192839290830191858101910280838360005b838110156104c45781810151838201526020016104ac565b505050509050019250505060405180910390f35b3480156104e457600080fd5b50610377611842565b3480156104f957600080fd5b506103b4611851565b34801561050e57600080fd5b5061044c6118c2565b34801561052357600080fd5b506103b46118c8565b34801561053857600080fd5b506103b4600160a060020a0360043581169060243590604435166119ca565b34801561056357600080fd5b506103b4611ae3565b34801561057857600080fd5b506103b4600160a060020a0360043516611b4b565b34801561059957600080fd5b50610377611c4e565b3480156105ae57600080fd5b506103b4611c5d565b3480156105c357600080fd5b50610377611d4a565b3480156105d857600080fd5b5061044c611d59565b6103b4611d5f565b3480156105f557600080fd5b5061044c611df5565b34801561060a57600080fd5b5061034e611dfb565b61034e600160a060020a03600435811690602435906044358116906064351660843560a4351515611e71565b34801561064b57600080fd5b506103b4611eda565b34801561066057600080fd5b5061044c611f44565b34801561067557600080fd5b506103b4600160a060020a0360043516611f4a565b34801561069657600080fd5b506103b4611fe4565b3480156106ab57600080fd5b506103b4600160a060020a036004351661207b565b3480156106cc57600080fd5b5061048861215a565b3480156106e157600080fd5b5061044c600160a060020a03600435811690602435166044356064356121ba565b34801561070e57600080fd5b506103776123f1565b34801561072357600080fd5b50610377612405565b34801561073857600080fd5b5061034e612414565b34801561074d57600080fd5b506103b4600160a060020a0360043516612425565b34801561076e57600080fd5b506103b4600160a060020a036004351661247d565b34801561078f57600080fd5b5061044c612580565b3480156107a457600080fd5b5061044c600160a060020a0360043581169060243516604435606435612586565b3480156107d157600080fd5b506103b4600160a060020a03600435166125b8565b3480156107f257600080fd5b506103b4600160a060020a036004358116906024358116906044351661272c565b34801561081f57600080fd5b50610377612801565b34801561083457600080fd5b5061034e600160a060020a0360043516612810565b34801561085557600080fd5b5061085e61282e565b6040518082600381111561086e57fe5b60ff16815260200191505060405180910390f35b34801561088e57600080fd5b5061034e612837565b3480156108a357600080fd5b50610377612973565b3480156108b857600080fd5b50610377612982565b3480156108cd57600080fd5b506103b4600435600160a060020a0360243516612991565b3480156108f157600080fd5b5061044c612a26565b34801561090657600080fd5b50610377612a2c565b34801561091b57600080fd5b5061034e612a3b565b34801561093057600080fd5b5061044c612a5c565b34801561094557600080fd5b5061044c612a62565b34801561095a57600080fd5b5061034e600160a060020a0360043516612a68565b34801561097b57600080fd5b506103b4612a7d565b34801561099057600080fd5b5061034e612c77565b3480156109a557600080fd5b506103b4600160a060020a0360043516612d84565b3480156109c657600080fd5b50610377612da3565b3480156109db57600080fd5b5061044c600160a060020a0360043516612db2565b3480156109fc57600080fd5b5061044c612e7c565b348015610a1157600080fd5b5061044c600160a060020a0360043581169060243516604435606435612e82565b600b54600090600160a060020a03163314610a4c57600080fd5b601a805474ff0000000000000000000000000000000000000000191674010000000000000000000000000000000000000000179055604080516001815290517f7d7f00509dd73ac4449f698ae75ccc797895eff5fa9d446d3df387598a26e7359181900360200190a15060015b90565b600554600160a060020a031681565b600b54600090600160a060020a03163314610ae557600080fd5b600160a060020a0382166000908152600e602052604090205460ff161515610b0c57600080fd5b50600160a060020a0381166000908152600e60205260408120805460ff191690555b601054811015610c3f5781600160a060020a0316601082815481101515610b5157fe5b600091825260209091200154600160a060020a03161415610c3757601080546000198101908110610b7e57fe5b60009182526020909120015460108054600160a060020a039092169183908110610ba457fe5b6000918252602090912001805473ffffffffffffffffffffffffffffffffffffffff1916600160a060020a03929092169190911790556010805490610bed9060001983016139d2565b5060408051600160a060020a03841681526000602082015281517f5611bf3e417d124f97bf2c788843ea8bb502b66079fbee02158ef30b172cb762929181900390910190a1610c3f565b600101610b2e565b5050565b600554600160a060020a03163314610ca5576040805160e560020a62461bcd02815260206004820152601560248201527f4e6f742063726f776473616c6520616464726573730000000000000000000000604482015290519081900360640190fd5b600380546002919060ff1916600183021790555060006018554260075560018054600255601a805474ff000000000000000000000000000000000000000019167401000000000000000000000000000000000000000017905560408051918252517f7d7f00509dd73ac4449f698ae75ccc797895eff5fa9d446d3df387598a26e7359181900360200190a1565b600080600080600080600080600080610d49612414565b1515610d5457600080fd5b60026003805460ff1690811115610d6757fe5b14610dbc576040805160e560020a62461bcd02815260206004820152601460248201527f4e6f7420476f7665726e616e6365207068617365000000000000000000000000604482015290519081900360640190fd5b610dc4612837565b99508915610e1c576040805160e560020a62461bcd02815260206004820152601360248201527f63616e6e6f74207769746864726177206e6f7700000000000000000000000000604482015290519081900360640190fd5b600a5430319950600160a060020a03169450888b11610ec057610e57601854610e52610e4a42600754612ea9565b600254612ec7565b612efc565b601881905560195490038b1115610eb8576040805160e560020a62461bcd02815260206004820152600b60248201527f4e6f7420616c6c6f776564000000000000000000000000000000000000000000604482015290519081900360640190fd5b8a9750611043565b604080517f70a082310000000000000000000000000000000000000000000000000000000081523060048201529051600160a060020a038716916370a082319160248083019260209291908290030181600087803b158015610f2157600080fd5b505af1158015610f35573d6000803e3d6000fd5b505050506040513d6020811015610f4b57600080fd5b50519350610f598b8a612ea9565b601a54600a54604080517f809a9e5500000000000000000000000000000000000000000000000000000000815273eeeeeeeeeeeeeeeeeeeeeeeeeeeeeeeeeeeeeeee6004820152600160a060020a039283166024820152604481018590528151949a50919092169263809a9e55926064808401939192918290030181600087803b158015610fe657600080fd5b505af1158015610ffa573d6000803e3d6000fd5b505050506040513d604081101561101057600080fd5b5051925061101e8484612ec7565b915061102a8684612f0e565b96506110368983612efc565b8b11611043575087965060015b600088106111cc574260075560195461106090610e528a89612efc565b601955801561115357604080517fa9059cbb000000000000000000000000000000000000000000000000000000008152336004820152602481018990529051600160a060020a0387169163a9059cbb9160448083019260209291908290030181600087803b1580156110d157600080fd5b505af11580156110e5573d6000803e3d6000fd5b505050506040513d60208110156110fb57600080fd5b50511515611153576040805160e560020a62461bcd02815260206004820152601560248201527f5472616e7366657220756e7375636365737366756c0000000000000000000000604482015290519081900360640190fd5b600088111561119857600654604051600160a060020a039091169089156108fc02908a906000818181858888f19350505050158015611196573d6000803e3d6000fd5b505b6040805189815290517f5b6b431d4476a211bb7d41c20d1aab9ae2321deee0d20be3d9fc9b1093fa6e3d9181900360200190a15b5050505050505050505050565b600554600160a060020a0316331461123b576040805160e560020a62461bcd02815260206004820152601560248201527f4e6f742063726f776473616c6520616464726573730000000000000000000000604482015290519081900360640190fd5b6003805460ff19169055565b601254600160a060020a0316156112a8576040805160e560020a62461bcd02815260206004820152601d60248201527f6b696c6c20706f6c6c20697320616c7265616479206465706c6f796564000000604482015290519081900360640190fd5b6004805460038054601754604080517f95c7aba40000000000000000000000000000000000000000000000000000000081526000818801819052600160a060020a036101009095048516604483015260648201939093526001420160e482015261010481018390523061012482015261014060248201526101448101949094527f5965730000000000000000000000000000000000000000000000000000000000610164850152610180608485015260056101848501527f444149434f0000000000000000000000000000000000000000000000000000006101a48501526101c060a48501526101c48401959095527f4b696c6c000000000000000000000000000000000000000000000000000000006101e484015261020060c4840152601f6102048401527f546f6b656e2050726f706f7274696f6e616c2043617070656420426f756e640061022484015293519216926395c7aba492610244808401936020939083900390910190829087803b15801561142357600080fd5b505af1158015611437573d6000803e3d6000fd5b505050506040513d602081101561144d57600080fd5b50516012805473ffffffffffffffffffffffffffffffffffffffff1916600160a060020a039283161790819055166000908152601460205260409020805460ff19166001179055565b61149e612414565b15156114a957600080fd5b60026003805460ff16908111156114bc57fe5b14611511576040805160e560020a62461bcd02815260206004820152601460248201527f4e6f7420476f7665726e616e6365207068617365000000000000000000000000604482015290519081900360640190fd5b601354600160a060020a031615611598576040805160e560020a62461bcd02815260206004820152602160248201527f54617020496e6372656d656e7420706f6c6c20616c726561647920657869737460448201527f7300000000000000000000000000000000000000000000000000000000000000606482015290519081900360840190fd5b6004805460038054601754604080517f95c7aba40000000000000000000000000000000000000000000000000000000081526000968101879052600160a060020a036101009094048416604482015260648101929092526001420160e483015261010482018690523061012483015261014060248301526101448201939093527f7965730000000000000000000000000000000000000000000000000000000000610164820152610180608482015260056101848201527f444149434f0000000000000000000000000000000000000000000000000000006101a48201526101c060a482015260126101c48201527f54617020496e6372656d656e7420506f6c6c00000000000000000000000000006101e482015261020060c482015260196102048201527f546f6b656e2050726f706f7274696f6e616c204361707065640000000000000061022482015291519216926395c7aba492610244808401936020939083900390910190829087803b15801561171257600080fd5b505af1158015611726573d6000803e3d6000fd5b505050506040513d602081101561173c57600080fd5b50516013805473ffffffffffffffffffffffffffffffffffffffff1916600160a060020a03928316178082558216600090815260146020908152604091829020805460ff191660011790559154815193168352517f0ff1aa674f3f4ed852ec08f5eb515d50af82fbdf5b07e86bc00120decc48ec159281900390910190a1565b600654600160a060020a031681565b60175481565b600c54600160a060020a031681565b6060600f80548060200260200160405190810160405280929190818152602001828054801561183857602002820191906000526020600020905b8154600160a060020a0316815260019091019060200180831161181a575b5050505050905090565b600a54600160a060020a031681565b6003805460ff168181111561186257fe5b146118b7576040805160e560020a62461bcd02815260206004820152601460248201527f4e6f7420796574206b696c6c6564207068617365000000000000000000000000604482015290519081900360640190fd5b6118c033612f31565b565b60075481565b600554600160a060020a0316331461192a576040805160e560020a62461bcd02815260206004820152601560248201527f4e6f742063726f776473616c6520616464726573730000000000000000000000604482015290519081900360640190fd5b60006003805460ff169081111561193d57fe5b14611992576040805160e560020a62461bcd02815260206004820152601360248201527f4e6f742063726f776473616c6520706861736500000000000000000000000000604482015290519081900360640190fd5b6003805460ff191660011790556040517f631bc0565bc5cd2296a2ccb2e86b4576ee14c75047d7c258e483519be018437090600090a1565b600b54600160a060020a031633146119e157600080fd5b82600160a060020a031663a9059cbb82846040518363ffffffff167c01000000000000000000000000000000000000000000000000000000000281526004018083600160a060020a0316600160a060020a0316815260200182815260200192505050602060405180830381600087803b158015611a5d57600080fd5b505af1158015611a71573d6000803e3d6000fd5b505050506040513d6020811015611a8757600080fd5b50511515611a9457600080fd5b60408051600160a060020a0380861682526020820185905283168183015290517f72cb8a894ddb372ceec3d2a7648d86f17d5a15caae0e986c53109b8a9a9385e69181900360600190a1505050565b60016003805460ff1690811115611af657fe5b146118b7576040805160e560020a62461bcd02815260206004820152601a60248201527f4e6f742063726f776473616c6520726566756e64207068617365000000000000604482015290519081900360640190fd5b600b54600160a060020a03163314611b6257600080fd5b600160a060020a0381166000908152600e602052604090205460ff1615611b8857600080fd5b601054603211611b9757600080fd5b60408051600160a060020a03831681526001602082015281517f5611bf3e417d124f97bf2c788843ea8bb502b66079fbee02158ef30b172cb762929181900390910190a1600160a060020a03166000818152600e60205260408120805460ff191660019081179091556010805491820181559091527f1b6847dc741a1b0cd08d278845f9d819d87b734759afb55fe2de5cb82a9ae67201805473ffffffffffffffffffffffffffffffffffffffff19169091179055565b601254600160a060020a031681565b6000611c67612837565b9050801515611cc0576040805160e560020a62461bcd02815260206004820152600f60248201527f43616e6e6f74204b696c6c204e6f770000000000000000000000000000000000604482015290519081900360640190fd5b6003805460ff191681179055601a805474ff000000000000000000000000000000000000000019169055604080516000815290517f7d7f00509dd73ac4449f698ae75ccc797895eff5fa9d446d3df387598a26e7359181900360200190a16040517f61d1ea1d6ab9e47adff75b0b4d910040049a29708987b5f67c990ce4a8fbdc3c90600090a150565b601c54600160a060020a031681565b60155481565b60006003805460ff1690811115611d7257fe5b1480611d8e575060026003805460ff1690811115611d8c57fe5b145b1515611de4576040805160e560020a62461bcd02815260206004820152601b60248201527f4e6f7420616363657074696e6720636f6e747269627574696f6e730000000000604482015290519081900360640190fd5b611df060085434612efc565b600855565b60085481565b336000908152600e602052604081205460ff161515611e1957600080fd5b601a805474ff000000000000000000000000000000000000000019169055604080516000815290517f7d7f00509dd73ac4449f698ae75ccc797895eff5fa9d446d3df387598a26e7359181900360200190a150600190565b601a5460009074010000000000000000000000000000000000000000900460ff161515611e9d57600080fd5b601a54600160a060020a03163314611eb457600080fd5b611ec28787878787876133e7565b1515611ecd57600080fd5b5060019695505050505050565b611ee2612414565b1515611eed57600080fd5b60008054604051600160a060020a03909116907f8be0079c531659141344cd1fd0a4f28419497f9722a3daafe3b4186f6b6457e0908390a36000805473ffffffffffffffffffffffffffffffffffffffff19169055565b60165481565b600b54600160a060020a03163314611f6157600080fd5b600160a060020a0381161515611f7657600080fd5b600c5460408051600160a060020a039092168252517f3b81caf78fa51ecbc8acb482fd7012a277b428d9b80f9d156e8a54107496cc409181900360200190a1600c805473ffffffffffffffffffffffffffffffffffffffff1916600160a060020a0392909216919091179055565b600c54600160a060020a03163314611ffb57600080fd5b600c54600b5460408051600160a060020a03938416815292909116602083015280517f65da1cfc2c2e81576ad96afb24a581f8e109b7a403b35cbd3243a1c99efdb9ed9281900390910190a1600c8054600b805473ffffffffffffffffffffffffffffffffffffffff19908116600160a060020a03841617909155169055565b600b54600160a060020a0316331461209257600080fd5b600160a060020a03811615156120a757600080fd5b60408051600160a060020a038316815290517f3b81caf78fa51ecbc8acb482fd7012a277b428d9b80f9d156e8a54107496cc409181900360200190a1600b5460408051600160a060020a038085168252909216602083015280517f65da1cfc2c2e81576ad96afb24a581f8e109b7a403b35cbd3243a1c99efdb9ed9281900390910190a1600b805473ffffffffffffffffffffffffffffffffffffffff1916600160a060020a0392909216919091179055565b6060601080548060200260200160405190810160405280929190818152602001828054801561183857602002820191906000526020600020908154600160a060020a0316815260019091019060200180831161181a575050505050905090565b600080600080600080601a60149054906101000a900460ff1615156121e257600095506123e4565b73eeeeeeeeeeeeeeeeeeeeeeeeeeeeeeeeeeeeeeee600160a060020a038b161415612213576001935088945061224d565b73eeeeeeeeeeeeeeeeeeeeeeeeeeeeeeeeeeeeeeee600160a060020a038a161415612244576000935089945061224d565b600095506123e4565b601b54604080517fb8e9c22e000000000000000000000000000000000000000000000000000000008152600160a060020a038881166004830152602482018b90528715156044830152606482018c90529151919092169163b8e9c22e9160848083019260209291908290030181600087803b1580156122cb57600080fd5b505af11580156122df573d6000803e3d6000fd5b505050506040513d60208110156122f557600080fd5b505192506123058a8a8a86612e82565b9150816123118a612db2565b101561232057600095506123e4565b601c54600160a060020a0316156123e057601c54604080517fa58092b7000000000000000000000000000000000000000000000000000000008152600160a060020a038d811660048301528c811660248301529151919092169163a58092b79160448083019260209291908290030181600087803b1580156123a157600080fd5b505af11580156123b5573d6000803e3d6000fd5b505050506040513d60208110156123cb57600080fd5b50519050808311156123e057600095506123e4565b8295505b5050505050949350505050565b6003546101009004600160a060020a031681565b600054600160a060020a031690565b600054600160a060020a0316331490565b61242d612414565b151561243857600080fd5b600554600160a060020a03161561244e57600080fd5b6005805473ffffffffffffffffffffffffffffffffffffffff1916600160a060020a0392909216919091179055565b600b54600160a060020a0316331461249457600080fd5b600160a060020a0381166000908152600d602052604090205460ff16156124ba57600080fd5b600f546032116124c957600080fd5b60408051600160a060020a03831681526001602082015281517f091a7a4b85135fdd7e8dbc18b12fabe5cc191ea867aa3c2e1a24a102af61d58b929181900390910190a1600160a060020a03166000818152600d60205260408120805460ff19166001908117909155600f805491820181559091527f8d1108e10bcb7c27dddfc02ed9d693a074039d026cf4ea4240b40f7d581ac80201805473ffffffffffffffffffffffffffffffffffffffff19169091179055565b60025481565b600080600061259486613766565b915061259f87613766565b90506125ad85828487613815565b979650505050505050565b600b54600090600160a060020a031633146125d257600080fd5b600160a060020a0382166000908152600d602052604090205460ff1615156125f957600080fd5b50600160a060020a0381166000908152600d60205260408120805460ff191690555b600f54811015610c3f5781600160a060020a0316600f8281548110151561263e57fe5b600091825260209091200154600160a060020a0316141561272457600f8054600019810190811061266b57fe5b600091825260209091200154600f8054600160a060020a03909216918390811061269157fe5b6000918252602090912001805473ffffffffffffffffffffffffffffffffffffffff1916600160a060020a0392909216919091179055600f805460001901906126da90826139d2565b5060408051600160a060020a03841681526000602082015281517f091a7a4b85135fdd7e8dbc18b12fabe5cc191ea867aa3c2e1a24a102af61d58b929181900390910190a1610c3f565b60010161261b565b600b54600160a060020a0316331461274357600080fd5b600160a060020a038316151561275857600080fd5b600160a060020a038216151561276d57600080fd5b601a8054600160a060020a0380861673ffffffffffffffffffffffffffffffffffffffff199283161792839055601b80548683169084161790819055601c8054868416941693909317928390556040805194831685529082166020850152911682820152517f7a85322644a4462d8ff5482d2a841a4d231f8cfb3c9f4a50f66f8b2bd568c31c9181900360600190a1505050565b601a54600160a060020a031681565b600160a060020a031660009081526014602052604090205460ff1690565b60035460ff1681565b601254604080517f79cc935100000000000000000000000000000000000000000000000000000000815260006004820181905291519192600160a060020a03169183916129679184916379cc935191602480830192602092919082900301818887803b1580156128a657600080fd5b505af11580156128ba573d6000803e3d6000fd5b505050506040513d60208110156128d057600080fd5b5051600354604080517f18160ddd0000000000000000000000000000000000000000000000000000000081529051610100909204600160a060020a0316916318160ddd916004808201926020929091908290030181600087803b15801561293657600080fd5b505af115801561294a573d6000803e3d6000fd5b505050506040513d602081101561296057600080fd5b5051612f0e565b60155411159392505050565b600454600160a060020a031681565b601354600160a060020a031681565b600b54600160a060020a031633146129a857600080fd5b604051600160a060020a0382169083156108fc029084906000818181858888f193505050501580156129de573d6000803e3d6000fd5b5060408051838152600160a060020a038316602082015281517fec47e7ed86c86774d1a72c19f35c639911393fe7c1a34031fdbd260890da90de929181900390910190a15050565b60185481565b601b54600160a060020a031681565b601a5474010000000000000000000000000000000000000000900460ff1681565b60195481565b60015481565b60146020526000908152604090205460ff1681565b600080612a88612414565b1515612a9357600080fd5b60026003805460ff1690811115612aa657fe5b14612afb576040805160e560020a62461bcd02815260206004820152601460248201527f4e6f7420476f7665726e616e6365207068617365000000000000000000000000604482015290519081900360640190fd5b612b03612c77565b9150811515612b5c576040805160e560020a62461bcd02815260206004820152601660248201527f43616e277420696e63726561736520746170206e6f7700000000000000000000604482015290519081900360640190fd5b612b71601854610e52610e4a42600754612ea9565b60185542600755600954600254612b9291612b8b91612ec7565b6064612f0e565b60025550601354604080517f8d99b2eb0000000000000000000000000000000000000000000000000000000081529051600160a060020a03909216918291638d99b2eb91600480830192600092919082900301818387803b158015612bf657600080fd5b505af1158015612c0a573d6000803e3d6000fd5b505060025460135460408051928352600160a060020a03909116602083015280517f92109784fd829076d380ae472bbf9da4e01b7c2b448662e6c93d98c40a683507945091829003019150a150506013805473ffffffffffffffffffffffffffffffffffffffff19169055565b601354600090819081908190600160a060020a03161515612ce2576040805160e560020a62461bcd02815260206004820152601660248201527f4e6f2074617020706f6c6c206578697374732079657400000000000000000000604482015290519081900360640190fd5b601360009054906101000a9004600160a060020a03169250612d6083600160a060020a03166379cc935160006040518263ffffffff167c010000000000000000000000000000000000000000000000000000000002815260040180828152602001915050602060405180830381600087803b1580156128a657600080fd5b9150612d6a612837565b90506016548210158015612d7c575080155b935050505090565b612d8c612414565b1515612d9757600080fd5b612da0816138bc565b50565b600b54600160a060020a031681565b600080600160a060020a03831673eeeeeeeeeeeeeeeeeeeeeeeeeeeeeeeeeeeeeeee1415612de35730319150612e76565b50604080517f70a0823100000000000000000000000000000000000000000000000000000000815230600482018190529151600160a060020a038516916370a082319160248083019260209291908290030181600087803b158015612e4757600080fd5b505af1158015612e5b573d6000803e3d6000fd5b505050506040513d6020811015612e7157600080fd5b505191505b50919050565b60095481565b6000806000612e9086613766565b9150612e9b87613766565b90506125ad85828487613939565b60008083831115612eb957600080fd5b5050808203805b5092915050565b600080831515612eda5760009150612ec0565b50828202828482811515612eea57fe5b0414612ef557600080fd5b9392505050565b600082820183811015612ef557600080fd5b600080808311612f1d57600080fd5b8284811515612f2857fe5b04949350505050565b6000806000806000600360019054906101000a9004600160a060020a0316600160a060020a03166370a08231876040518263ffffffff167c01000000000000000000000000000000000000000000000000000000000281526004018082600160a060020a0316600160a060020a03168152602001915050602060405180830381600087803b158015612fc257600080fd5b505af1158015612fd6573d6000803e3d6000fd5b505050506040513d6020811015612fec57600080fd5b5051945060008511613048576040805160e560020a62461bcd02815260206004820152601260248201527f5a65726f20746f6b656e2062616c616e63650000000000000000000000000000604482015290519081900360640190fd5b600a54604080517f70a082310000000000000000000000000000000000000000000000000000000081523060048201529051600160a060020a03909216955085916370a08231916024808201926020929091908290030181600087803b1580156130b157600080fd5b505af11580156130c5573d6000803e3d6000fd5b505050506040513d60208110156130db57600080fd5b505192506131596130ed863031612ec7565b600360019054906101000a9004600160a060020a0316600160a060020a03166318160ddd6040518163ffffffff167c0100000000000000000000000000000000000000000000000000000000028152600401602060405180830381600087803b15801561293657600080fd5b91506131686130ed8685612ec7565b905060008211806131795750600081115b15156131cf576040805160e560020a62461bcd02815260206004820152601a60248201527f4e6f20726566756e6420616d6f756e7420617661696c61626c65000000000000604482015290519081900360640190fd5b600354604080517f79cc6790000000000000000000000000000000000000000000000000000000008152600160a060020a038981166004830152602482018990529151610100909304909116916379cc67909160448082019260009290919082900301818387803b15801561324357600080fd5b505af1158015613257573d6000803e3d6000fd5b50505050600081111561334e57604080517fa9059cbb000000000000000000000000000000000000000000000000000000008152336004820152602481018390529051600160a060020a0386169163a9059cbb9160448083019260209291908290030181600087803b1580156132cc57600080fd5b505af11580156132e0573d6000803e3d6000fd5b505050506040513d60208110156132f657600080fd5b5051151561334e576040805160e560020a62461bcd02815260206004820152601560248201527f5472616e7366657220756e7375636365737366756c0000000000000000000000604482015290519081900360640190fd5b600082111561338f57604051600160a060020a0387169083156108fc029084906000818181858888f1935050505015801561338d573d6000803e3d6000fd5b505b60408051600160a060020a0388168152602081018490528082018390526060810187905290517f2399d4e5a80aaf5b7055ea5fe1bb9606437b6b062b50207733802928cb860aaf9181900360800190a1505050505050565b6000806000808415613441576000861161340057600080fd5b600160a060020a038a1673eeeeeeeeeeeeeeeeeeeeeeeeeeeeeeeeeeeeeeee14156134365734891461343157600080fd5b613441565b341561344157600080fd5b61344d8a898b89612e82565b92506000831161345c57600080fd5b600160a060020a038a1673eeeeeeeeeeeeeeeeeeeeeeeeeeeeeeeeeeeeeeee141561348b575086905081613496565b886000190290508991505b601b54604080517fc6fd2103000000000000000000000000000000000000000000000000000000008152600160a060020a03858116600483015260248201859052600060448301819052436064840152925193169263c6fd21039260848084019391929182900301818387803b15801561350f57600080fd5b505af1158015613523573d6000803e3d6000fd5b50505050600160a060020a038a1673eeeeeeeeeeeeeeeeeeeeeeeeeeeeeeeeeeeeeeee146135f057604080517f23b872dd000000000000000000000000000000000000000000000000000000008152336004820152306024820152604481018b90529051600160a060020a038c16916323b872dd9160648083019260209291908290030181600087803b1580156135b957600080fd5b505af11580156135cd573d6000803e3d6000fd5b505050506040513d60208110156135e357600080fd5b505115156135f057600080fd5b600160a060020a03881673eeeeeeeeeeeeeeeeeeeeeeeeeeeeeeeeeeeeeeee141561365157604051600160a060020a0388169084156108fc029085906000818181858888f1935050505015801561364b573d6000803e3d6000fd5b506136fa565b604080517f23b872dd000000000000000000000000000000000000000000000000000000008152306004820152600160a060020a038981166024830152604482018690529151918a16916323b872dd916064808201926020929091908290030181600087803b1580156136c357600080fd5b505af11580156136d7573d6000803e3d6000fd5b505050506040513d60208110156136ed57600080fd5b505115156136fa57600080fd5b60408051600160a060020a038c81168252602082018c90528a8116828401526060820186905289166080820152905133917fea9415385bae08fe9f6dc457b02577166790cde83bb18cc340aac6cb81b824de919081900360a00190a25060019998505050505050505050565b600080600160a060020a03831673eeeeeeeeeeeeeeeeeeeeeeeeeeeeeeeeeeeeeeee14156137975760129150612e76565b50600160a060020a03821660009081526011602052604090205480151561380f5782600160a060020a031663313ce5676040518163ffffffff167c0100000000000000000000000000000000000000000000000000000000028152600401602060405180830381600087803b158015612e4757600080fd5b92915050565b600080806b204fce5e3e2502611000000087111561383257600080fd5b69d3c21bcecceda100000084111561384957600080fd5b84861061387a576012858703111561386057600080fd5b5050828403600a0a8502670de0b6b3a764000002826138a0565b6012868603111561388a57600080fd5b5050670de0b6b3a76400008502848403600a0a83025b806001828401038115156138b057fe5b04979650505050505050565b600160a060020a03811615156138d157600080fd5b60008054604051600160a060020a03808516939216917f8be0079c531659141344cd1fd0a4f28419497f9722a3daafe3b4186f6b6457e091a36000805473ffffffffffffffffffffffffffffffffffffffff1916600160a060020a0392909216919091179055565b60006b204fce5e3e2502611000000085111561395457600080fd5b69d3c21bcecceda100000082111561396b57600080fd5b83831061399e576012848403111561398257600080fd5b670de0b6b3a7640000858302858503600a0a025b0490506139ca565b601283850311156139ae57600080fd5b828403600a0a670de0b6b3a76400000282860281151561399657fe5b949350505050565b8154818355818111156139f6576000838152602090206139f69181019083016139fb565b505050565b610ab991905b80821115613a155760008155600101613a01565b50905600a165627a7a723058202844670510cbf4fe8cdc7696cec3a40b605e601ea487786e08fc4fbc3654e06b0029",
  "source": "pragma solidity ^0.4.25;\r\n\r\nimport \"./Treasury.sol\";\r\nimport \"./Poll/UnBoundPoll.sol\";\r\n\r\n\r\ncontract PollFactory is Treasury, KyberReserveInterface, Withdrawable, Utils {\r\n    \r\n    address public killPollAddress;\r\n    address public tapPoll;\r\n    mapping(address => bool) public pollAddresses;\r\n    uint public killAcceptancePercent;\r\n    uint public tapAcceptancePercent;\r\n    uint public capPercent;\r\n    uint public splineHeightAtPivot;\r\n    uint public withdrawnTillNow;\r\n\r\n    //Kyber\r\n    address public kyberNetwork;\r\n    bool public tradeEnabled;\r\n    ConversionRatesInterface public conversionRatesContract;\r\n    SanityRatesInterface public sanityRatesContract;\r\n    ERC20Interface constant internal ETH_TOKEN_ADDRESS = ERC20Interface(0x00eeeeeeeeeeeeeeeeeeeeeeeeeeeeeeeeeeeeeeee);\r\n\r\n    event RefundStarted();\r\n    event Withdraw(uint amountWei);\r\n    event TapIncreased(uint amountWei, address contractAddress);\r\n    event TapPollCreated(address tapPollAddress);\r\n\r\n    //Kyber\r\n    event DepositToken(ERC20Interface token, uint amount);\r\n\r\n    constructor(address _erc20Token, address _teamAddress, uint _initialTap, uint _capPercent, \r\n    uint _killAcceptancePercent, uint _tapAcceptancePercent, uint _tapIncrementFactor, address _pollDeployer, \r\n    address _kyberNetwork, ConversionRatesInterface _ratesContract, address _daiAddress)\r\n        public Treasury(_erc20Token, _teamAddress, _initialTap, _tapIncrementFactor, _pollDeployer, _daiAddress) {\r\n            //check for cap maybe\r\n            // cap is 10^2 multiplied to actual percentage - already in poll\r\n            require(_killAcceptancePercent <= 80, \"Kill Acceptance should be less than 80 %\");\r\n            require(_tapAcceptancePercent >= 50, \"At least 50% must accept tap increment\");\r\n            capPercent = _capPercent;\r\n            killAcceptancePercent = _killAcceptancePercent;\r\n            tapAcceptancePercent = _tapAcceptancePercent;\r\n            tapIncrementFactor = _tapIncrementFactor;\r\n            kyberNetwork = _kyberNetwork;\r\n            conversionRatesContract = _ratesContract;\r\n        }\r\n    \r\n    function() public payable {\r\n        emit DepositToken(ETH_TOKEN_ADDRESS, msg.value);\r\n    }\r\n\r\n    function createKillPoll() external {\r\n        require(killPollAddress == address(0), \"kill poll is already deployed\");\r\n        killPollAddress = pollDeployer.deployUnBoundPoll(address(0), \"Yes\", erc20Token, capPercent, \r\n        \"DAICO\", \"Kill\", \"Token Proportional Capped Bound\", now + 1, 0, address(this));\r\n        pollAddresses[killPollAddress] = true;\r\n    }\r\n\r\n    function executeKill() external {\r\n        bool canKillApp = canKill();\r\n        require(canKillApp, \"Cannot Kill Now\");\r\n        state = TreasuryState.Killed;\r\n        tradeEnabled = false;\r\n        emit TradeEnabled(false);\r\n        emit RefundStarted();\r\n    }\r\n\r\n    function createTapIncrementPoll() external onlyOwner onlyDuringGovernance {        \r\n        require(tapPoll == 0, \"Tap Increment poll already exists\");\r\n        tapPoll = pollDeployer.deployUnBoundPoll(address(0), \"yes\", erc20Token, capPercent,\r\n        \"DAICO\", \"Tap Increment Poll\", \"Token Proportional Capped\", now + 1, 0, address(this));\r\n        pollAddresses[tapPoll] = true;\r\n        emit TapPollCreated(tapPoll);\r\n    }\r\n\r\n    function increaseTap() external onlyOwner onlyDuringGovernance {\r\n        bool canIncrease = canIncreaseTap();\r\n        require(canIncrease, \"Can't increase tap now\");\r\n        splineHeightAtPivot = SafeMath.add(splineHeightAtPivot, SafeMath.mul(SafeMath.sub(now, \r\n            pivotTime), currentTap));\r\n        pivotTime = now;\r\n        currentTap = SafeMath.div(SafeMath.mul(tapIncrementFactor, currentTap), 100);\r\n        UnBoundPoll instance = UnBoundPoll(tapPoll);\r\n        instance.endPoll();\r\n        emit TapIncreased(currentTap, tapPoll);\r\n        tapPoll = address(0);\r\n    }\r\n\r\n    function onCrowdSaleR1End() external onlyCrowdSale {\r\n        state = TreasuryState.Governance;\r\n        splineHeightAtPivot = 0;\r\n        pivotTime = now;\r\n        currentTap = initialTap;\r\n        tradeEnabled = true;\r\n        emit TradeEnabled(true);\r\n    }\r\n\r\n    function withdrawAmount(uint _amount) external onlyOwner onlyDuringGovernance {\r\n        bool canKillApp =  canKill();\r\n        require(!canKillApp, \"cannot withdraw now\");\r\n        uint contractEthBalance = address(this).balance;\r\n        uint withdrawableAmount;\r\n        uint tokensToSend;\r\n        uint ethEqOfDai;\r\n        ERC20Interface token = ERC20Interface(daiAddress);\r\n        if (_amount <= contractEthBalance) {\r\n            splineHeightAtPivot = SafeMath.add(splineHeightAtPivot, SafeMath.mul(SafeMath.sub(now, \r\n                    pivotTime), currentTap));\r\n            require(_amount <= splineHeightAtPivot - withdrawnTillNow, \"Not allowed\");\r\n            withdrawableAmount = _amount;\r\n        } else {\r\n            uint daiBalance = token.balanceOf(address(this));\r\n            uint ethRate;\r\n            ethEqOfDai = SafeMath.sub(_amount, contractEthBalance);\r\n            (ethRate, ) = KyberNetworkProxy(kyberNetwork).getExpectedRate(ETH_TOKEN_ADDRESS, \r\n            ERC20Interface(daiAddress), ethEqOfDai);\r\n            uint daiAsEthValue = SafeMath.mul(daiBalance, ethRate);\r\n            tokensToSend = SafeMath.div(ethEqOfDai, ethRate);\r\n            bool canSend;\r\n            if (_amount <= SafeMath.add(contractEthBalance, daiAsEthValue)) {\r\n                withdrawableAmount = contractEthBalance;\r\n                canSend = true;\r\n            }\r\n        }\r\n        if (withdrawableAmount >= 0) {\r\n            pivotTime = now;\r\n            withdrawnTillNow = SafeMath.add(withdrawnTillNow, SafeMath.add(withdrawableAmount, ethEqOfDai));\r\n            if (canSend) require(token.transfer(msg.sender, tokensToSend), \"Transfer unsuccessful\");\r\n            if (withdrawableAmount > 0) teamAddress.transfer(withdrawableAmount);\r\n            emit Withdraw(withdrawableAmount);\r\n        }\r\n    }\r\n\r\n    function isPollAddress(address _address) external view returns (bool) {\r\n        return pollAddresses[_address];\r\n    }\r\n\r\n    event TradeExecute(\r\n        address indexed origin,\r\n        address src,\r\n        uint srcAmount,\r\n        address destToken,\r\n        uint destAmount,\r\n        address destAddress\r\n    );\r\n\r\n    function trade(\r\n        ERC20Interface srcToken,\r\n        uint srcAmount,\r\n        ERC20Interface destToken,\r\n        address destAddress,\r\n        uint conversionRate,\r\n        bool validate\r\n    )\r\n        public\r\n        payable\r\n        returns(bool)\r\n    {\r\n        require(tradeEnabled);\r\n        require(msg.sender == kyberNetwork);\r\n\r\n        require(doTrade(srcToken, srcAmount, destToken, destAddress, conversionRate, validate));\r\n\r\n        return true;\r\n    }\r\n\r\n    event TradeEnabled(bool enable);\r\n\r\n    function enableTrade() public onlyAdmin returns(bool) {\r\n        tradeEnabled = true;\r\n        emit TradeEnabled(true);\r\n\r\n        return true;\r\n    }\r\n\r\n    function disableTrade() public onlyAlerter returns(bool) {\r\n        tradeEnabled = false;\r\n        emit TradeEnabled(false);\r\n\r\n        return true;\r\n    }\r\n\r\n    event SetContractAddresses(address network, address rate, address sanity);\r\n\r\n    function setContracts(\r\n        address _kyberNetwork,\r\n        ConversionRatesInterface _conversionRates,\r\n        SanityRatesInterface _sanityRates\r\n    )\r\n        public\r\n        onlyAdmin\r\n    {\r\n        require(_kyberNetwork != address(0));\r\n        require(_conversionRates != address(0));\r\n\r\n        kyberNetwork = _kyberNetwork;\r\n        conversionRatesContract = _conversionRates;\r\n        sanityRatesContract = _sanityRates;\r\n\r\n        emit SetContractAddresses(kyberNetwork, conversionRatesContract, sanityRatesContract);\r\n    }\r\n\r\n    function canIncreaseTap() public view returns (bool) {\r\n        require(tapPoll != address(0), \"No tap poll exists yet\");\r\n        UnBoundPoll instance = UnBoundPoll(tapPoll);\r\n        uint consensus = SafeMath.div(instance.getVoteTally(0), erc20Token.totalSupply());\r\n        bool canKillApp = canKill();\r\n        return (consensus >= tapAcceptancePercent && !canKillApp);\r\n    }\r\n\r\n    function canKill() public view returns (bool) {\r\n        UnBoundPoll currentKillPoll = UnBoundPoll(killPollAddress);\r\n        uint consensus = SafeMath.div(currentKillPoll.getVoteTally(0), erc20Token.totalSupply());\r\n        return consensus >= killAcceptancePercent;\r\n    }\r\n\r\n    function getBalance(ERC20Interface token) public view returns(uint) {\r\n        if (token == ETH_TOKEN_ADDRESS)\r\n            return this.balance;\r\n        else {\r\n            address wallet = address(this);\r\n            return token.balanceOf(wallet);\r\n        }\r\n    }\r\n\r\n    function getDestQty(ERC20Interface src, ERC20Interface dest, uint srcQty, uint rate) public view returns(uint) {\r\n        uint dstDecimals = getDecimals(dest);\r\n        uint srcDecimals = getDecimals(src);\r\n\r\n        return calcDstQty(srcQty, srcDecimals, dstDecimals, rate);\r\n    }\r\n\r\n    function getSrcQty(ERC20Interface src, ERC20Interface dest, uint dstQty, uint rate) public view returns(uint) {\r\n        uint dstDecimals = getDecimals(dest);\r\n        uint srcDecimals = getDecimals(src);\r\n\r\n        return calcSrcQty(dstQty, srcDecimals, dstDecimals, rate);\r\n    }\r\n\r\n    function getConversionRate(ERC20Interface src, ERC20Interface dest, uint srcQty, uint blockNumber) \r\n        public view returns(uint) {\r\n            ERC20Interface token;\r\n            bool  isBuy;\r\n\r\n            if (!tradeEnabled) return 0;\r\n\r\n            if (ETH_TOKEN_ADDRESS == src) {\r\n                isBuy = true;\r\n                token = dest;\r\n            } else if (ETH_TOKEN_ADDRESS == dest) {\r\n                isBuy = false;\r\n                token = src;\r\n            } else {\r\n                return 0; // pair is not listed\r\n            }\r\n\r\n            uint rate = conversionRatesContract.getRate(token, blockNumber, isBuy, srcQty);\r\n            uint destQty = getDestQty(src, dest, srcQty, rate);\r\n\r\n            if (getBalance(dest) < destQty) return 0;\r\n\r\n            if (sanityRatesContract != address(0)) {\r\n                uint sanityRate = sanityRatesContract.getSanityRate(src, dest);\r\n                if (rate > sanityRate) return 0;\r\n            }\r\n\r\n            return rate;\r\n        }\r\n\r\n    /// @dev do a trade\r\n    /// @param srcToken Src token\r\n    /// @param srcAmount Amount of src token\r\n    /// @param destToken Destination token\r\n    /// @param destAddress Destination address to send tokens to\r\n    /// @param validate If true, additional validations are applicable\r\n    /// @return true iff trade is successful\r\n    function doTrade(\r\n        ERC20Interface srcToken,\r\n        uint srcAmount,\r\n        ERC20Interface destToken,\r\n        address destAddress,\r\n        uint conversionRate,\r\n        bool validate\r\n    )\r\n        internal\r\n        returns(bool)\r\n    {\r\n        // can skip validation if done at kyber network level\r\n        if (validate) {\r\n            require(conversionRate > 0);\r\n            if (srcToken == ETH_TOKEN_ADDRESS)\r\n                require(msg.value == srcAmount);\r\n            else\r\n                require(msg.value == 0);\r\n        }\r\n\r\n        uint destAmount = getDestQty(srcToken, destToken, srcAmount, conversionRate);\r\n        // sanity check\r\n        require(destAmount > 0);\r\n\r\n        // add to imbalance\r\n        ERC20Interface token;\r\n        int tradeAmount;\r\n        if (srcToken == ETH_TOKEN_ADDRESS) {\r\n            tradeAmount = int(destAmount);\r\n            token = destToken;\r\n        } else {\r\n            tradeAmount = -1 * int(srcAmount);\r\n            token = srcToken;\r\n        }\r\n\r\n        conversionRatesContract.recordImbalance(\r\n            token,\r\n            tradeAmount,\r\n            0,\r\n            block.number\r\n        );\r\n\r\n        // collect src tokens\r\n        if (srcToken != ETH_TOKEN_ADDRESS) {\r\n            require(srcToken.transferFrom(msg.sender, address(this), srcAmount));\r\n        }\r\n\r\n        // send dest tokens\r\n        if (destToken == ETH_TOKEN_ADDRESS) {\r\n            destAddress.transfer(destAmount);\r\n        } else {\r\n            require(destToken.transferFrom(address(this), destAddress, destAmount));\r\n        }\r\n\r\n        emit TradeExecute(msg.sender, srcToken, srcAmount, destToken, destAmount, destAddress);\r\n\r\n        return true;\r\n    }\r\n}",
  "sourcePath": "C:/Users/vinay/Desktop/electusTech/Hackathon/ETH_Singapore_Hackathon_SC/contracts/PollFactory.sol",
  "compiler": {
    "name": "solc",
    "version": "0.4.25+commit.59dbf8f1.Emscripten.clang"
  },
  "schemaVersion": "3.0.0-beta.1",
  "updatedAt": "2018-12-08T06:50:02.283Z"
}